:100000000C9453090C9482090C9482090C94820973
:100010000C9482090C94AB440C9482090C948209D0
:100020000C949C440C9482090C9482090C948209CF
:100030000C9482090C9482090C9482090C94820914
:100040000C9482090C9482090C94324B0C94820912
:100050000C94484A0C940B110C9482090C9482095C
:100060000C9482090C9482090C9440140C94D214C0
:100070000C94FF140C9482090C948B4D0C948209FF
:100080000C94334D0C9482090C948209211E671E36
:10009000671E671E671E671E671E671E671E671E38
:1000A000671E671E671E491E671E671E4C1E4E1E7A
:1000B000511E541E571E5A1E5D1E5F1E691E621E73
:1000C000671E671E671E671E671E671E671E241E4B
:1000D000261E281E3D1E2B1E2E1E311E671E671E4D
:1000E000671E671E671E671E371E421E441E671E60
:1000F000671E5A1E3A1E331E351E671E461E671E99
:10010000671E671E671E671E671E641E671E241E0D
:10011000261E281E3D1E2B1E2E1E311E671E671E0C
:10012000671E671E671E671E371E421E441E671E1F
:100130003F1E5A1E3A1E331E351E671E461E9B1E4C
:10014000D11ED11ED11ED11ED11ED11ED11ED11E37
:10015000D11ED11ED11ED11ED11ED11ED11EBE1E3A
:10016000C01EC21EC41EC61EC81ECA1ECC1ED31E62
:10017000CF1ED11ED11ED11ED11ED11ED11ED11E09
:10018000AD1E9D1E9F1EA11EA31EA61EA81ED11E33
:10019000AA1ED11EAC1EAF1ED11EB11EB31EB61EAE
:1001A000D11EB51EC81EB81EBA1EBC1ED11EAC1E66
:1001B000D11ED11ED11ED11ED11ED11ED11ED11EC7
:1001C000AD1E9D1E9F1EA11EA31EA61EA81ED11EF3
:1001D000AA1ED11EAC1EAF1ED11EB11EB31EB61E6E
:1001E000D11EB51EC81EB81EBA1EBC1ED11EAC1E26
:1001F000F61E2E1F2E1F2E1F2E1F2E1F2E1F2E1FD0
:100200002E1F2E1F2E1F2E1F2E1F191F2E1F2E1F9B
:100210001B1F1D1F1F1F211F231F251F271F291FD6
:10022000301F2C1F2E1F2E1F2E1F2E1F2E1F2E1F66
:100230002E1F0A1FF81EFA1EFC1EFE1E011F031FA2
:100240002E1F051F2E1F2E1F071F2E1F091F0C1FDD
:100250002E1F2E1F0E1F251F111F131F151F2E1FB0
:100260002E1F171F2E1F2E1F2E1F2E1F2E1F2E1F3D
:100270002E1F0A1FF81EFA1EFC1EFE1E011F031F62
:100280002E1F051F2E1F2E1F071F2E1F091F0C1F9D
:100290002E1F2E1F0E1F251F111F131F151F2E1F70
:1002A0002E1F171F5F1FA21FA21FA21FA21FA21F88
:1002B000A21FA21FA21FA21FA21FA21FA21FA21F36
:1002C000A21FA21F8D1F8F1F921F941F961F981F82
:1002D0009A1F9C1FA51FA01FA21FA21FA21FA21F23
:1002E000A21FA21FA21F721F621F641F671F691F28
:1002F0006C1F6E1F711F741FA21F711F771FA21F1B
:100300007A1F7C1FA21FA21F7E1F981F811F831FA1
:10031000861FA21F711FA21FA21FA21FA21FA21F22
:10032000A21F891FA21F721F621F641F671F691F00
:100330006C1F6E1F711F741FA21F711F771FA21FDA
:100340007A1F7C1FA21FA21F7E1F981F811F831F61
:10035000861FA21F711FC81F032003200320032034
:100360000320032003200320032003200320032075
:10037000032003200320EF1FF11FF31FF61FF81FB8
:10038000FA1FFC1FFE1F052001200320032003206D
:10039000CC1F03200320032003200320D11FD31FE1
:1003A000DD1FE71FD51FD71F03200320D91FDC1F28
:1003B0000320DF1FE21FE41F0320E61FFA1FE91FCF
:1003C0000320ED1F03200320EB1F03200320032045
:1003D00003200320CA1F032003200320D11FD31FA3
:1003E000DD1FE71FD51FD71F03200320D91FDC1FE8
:1003F0000320DF1FE21FE41F0320E61FFA1FE91F8F
:100400000320ED1F03200320EB1F03200320032004
:100410000320CF1F6C210922092209220922092267
:1004200009220922092209220922092209229821E6
:1004300000220922712175217B217F218321DD2169
:1004400087218B218F219421092209220922092247
:100450000922092209229C21A021A421A821AC2142
:10046000B021B521BA21BF210922F121C4210922DD
:10047000C921CE21D3210922D821DD21E221E72182
:10048000EC210922F121F62109220922092209225F
:100490000922FB2109229C21A021A421A821AC2111
:1004A000B021B521BA21BF210922F121C42109229D
:1004B000C921CE21D3210922D821DD21E221E72142
:1004C000EC210922F121F6210100000002000000C8
:1004D000050000000A0000000F00000014000000EA
:1004E00019000000320000006400000096000000C7
:1004F00060090000C01200008025000040380000A4
:10050000004B0000807000000096000000E1000039
:10051000002C010000C2010000840300CDCC4C3D42
:10052000CDCCCC3D0000803E0000003F0000803F6D
:100530000000C03F000000400000A040000020413B
:10054000CDCCCC3D0000803E9A99993E0000003F02
:10055000206E6E656E750043616C69627200626147
:10056000742E4F6666004572722E20372E3300724D
:1005700053742E204F4B004572722E20372E3200BE
:100580004572722E20372E31004574616C6F6E00FB
:100590006261742E646973004572722E20372E33A7
:1005A000007253742E204F4B004572722E20372E4E
:1005B00032004572722E20372E31004572722E2085
:1005C0002036004572722E202033004572722E2094
:1005D000203100202069746F4700202053756E6E13
:1005E000004572722E202031007665722E00432E57
:1005F000622E200039393939393900382E382E38F1
:100600002E382E382E380037373737373700362E0A
:10061000362E362E362E362E3600353535353535D6
:1006200000342E342E342E342E342E340033333313
:1006300033333300322E322E322E322E322E32000F
:1006400031313131313100302E302E302E302E30DC
:100650002E300043616C69627200432E502E6E751D
:100660006E6E00432E502E2020203100432E502E3F
:100670002020203200432E502E2020203300432EF5
:10068000502E2020203400432E502E2020203500D4
:10069000532E452E7676676800532E20636F64656F
:1006A0000053742E4E756C6C0053742E4574616C3F
:1006B00000566F6C746167005265662E436F72005E
:1006C000502E20566F6C7400562E2020426174000C
:1006D00044762E436F7272004E2E20537562720064
:1006E000537562722E203100537562722E203200D3
:1006F000537562722E203300537562722E203400BF
:100700006E6E782E757567002064697363720020C1
:10071000202053657400502E4F6E2E4E756C004E87
:1007200065742E41647200426175645274004272B5
:1007300069676874006F666654696D004C43446F66
:1007400046460020536F756E640041742E6E6C2E09
:1007500063720020496E666F7300436865636B2E99
:10076000420046572E766572730050726563697356
:1007700000202053617665004578742E536574001F
:10078000502E6E2E70636E7400622E6E2E70636E2D
:10079000740054722E70636E740044672E41662E8E
:1007A0004474004D2E572E446973630044672E46EF
:1007B000742E5374004E722E6F66436E004E722E6E
:1007C00043742E766C00442E462E4F66662E4300F0
:1007D00041742E6E6C2E6332007570702E626E64E2
:1007E000004F6E652E53742E76005273742E44653E
:1007F0006600564E4520203600564E4520313500C5
:10080000564E45203335005654532036300056544A
:10081000533130300056545332303000300DAA0B73
:10082000000036080000000000000000000000008A
:100830000000000053065C0B50081C080000653CDB
:1008400002010500000002000000010000005A063D
:1008500036089E081C086A0800000000000000001E
:1008600000000000000000006306840884085008AF
:100870000000FC3FFF03002D3101000000001027A5
:10088000000090066A086A0850080000883FB70315
:100890000000000000000000000000009906500861
:1008A000EC081C08B8080000000000000000000070
:1008B0000000000000006C06D208D2089E0800006C
:1008C000FC3F0304002D3101000000001027000050
:1008D0009006B808B8089E080000883FBB030000D7
:1008E0000000000000000000000099069E083A0980
:1008F0001C080609000000000000000000000000C5
:1009000000000000750620092009EC080000FC3FEB
:100910000704002D310100000000102700009006A0
:1009200006090609EC080000883FBF03000000002C
:1009300000000000000000009906EC0888091C086F
:10094000540900000000000000000000000000004A
:1009500000007E066E096E093A090000FC3F0B0498
:10096000002D3101000000001027000090065409FE
:1009700054093A090000883FC3030000000000004A
:1009800000000000000099063A09D6091C08A209D7
:100990000000000000000000000000000000000057
:1009A0008706BC09BC0988090000FC3F0F04002D24
:1009B000310100000000102700009006A209A209E2
:1009C00088090000883FC703000000000000000005
:1009D0000000000099068809580A1C08F009000068
:1009E0000000000000000000000000000000B10650
:1009F0003E0A0A0AD60900001939F7038C0A0000DA
:100A0000FC08000001000000B806F009240AD6091D
:100A10000000E53E000000000000000000000000B3
:100A20000000C0060A0A3E0AD6090000353E000052
:100A3000000000000000000000000000C806240ABA
:100A4000F009D6090000093D000000000000000088
:100A5000000000000000D006D609720A1C08000041
:100A6000653CAF030400000001000000010000002D
:100A7000D806580AC00A1C088C0A000000000000B2
:100A800000000000000000000000E006A60AA60A20
:100A9000720A000059413A04002D310100000000A3
:100AA0001027000000078C0A8C0A720A0000B1406F
:100AB0003E040000000000000000000000000807E5
:100AC000720A0E0B1C08DA0A000000000000000089
:100AD0000000000000000000E806F40AF40AC00A62
:100AE000000059414204002D310100000000102790
:100AF00000000007DA0ADA0AC00A0000B140460422
:100B00000000000000000000000000000807C00A0C
:100B10005C0B1C08280B0000000000000000000017
:100B2000000000000000F006420B420B0E0B00001C
:100B300059414A04002D3101000000001027000037
:100B40000007280B280B0E0B0000B1404E040000DC
:100B50000000000000000000000008070E0B36082F
:100B60001C08760B000000000000000000000000E0
:100B700000000000F806900B900B5C0B0000594140
:100B80005204002D31010000000010270000000772
:100B9000760B760B5C0B0000B140560400000000A1
:100BA000000000000000000008071C08FC0C00000A
:100BB000C40B000000000000000000000000000066
:100BC00000000F07E20CDE0BAA0B0000F0349E03BE
:100BD0000100000000000000010000001607C40B27
:100BE000F80BAA0B0000653CAA037E000000010080
:100BF0000000010000001F07DE0B120CAA0B000012
:100C00007938000000000000000000000000000033
:100C10002707F80B2C0CAA0B0000653CA703640007
:100C2000000019000000190000002E07120C460CED
:100C3000AA0B0000213B00000000000000000000A3
:100C40000000000035072C0C600CAA0B0000A43A31
:100C500000000000000000000000000000003C0751
:100C6000460C7A0CAA0B0000F034010101000000D0
:100C700000000000010000004307600CE20CAA0B1A
:100C80000000F034990301000000000000000100A2
:100C900000004A077A0CE20CAA0BAE0C0000000020
:100CA0000000000000000000000000005307C80C16
:100CB000C80C940C0000E834A603000000000000FB
:100CC0000000000000005A07AE0CAE0C940C0000AF
:100CD000E834000095000000000000000000000063
:100CE00062077A0CC40BAA0B0000F034000101006B
:100CF000000000000000010000006A07AA0B160DAA
:100D000000000000C73900000000000000000000E3
:100D1000000000007107FC0C300D00000000D04204
:100D20000000000000000000000000000000780744
:100D3000160D1C080000000027360000050000000A
:100D40000000000000000000EA07340E640D0000FF
:100D50000000653CAD0364000000000000000100DD
:100D6000000080074A0D7E0D00000000653CA503D1
:100D70006400000000000000010000008907640D0D
:100D8000980D00000000653CB00364000000000006
:100D900000000100000092077E0DB20D000000006F
:100DA000653CAC03050000000100000001000000EC
:100DB0009A07980DCC0D000000001939DF031027A9
:100DC00000000000000001000000A307B20D340E77
:100DD0000000E60D00000000000000000000000020
:100DE00000000000AC071A0E000ECC0D0000AF3B57
:100DF000BF06640000000400000002000000B50708
:100E0000E60D1A0ECC0D0000AF3BB90664000000E1
:100E10000000000002000000BD07000EE60DCC0D32
:100E200000004C370000000000000000000000003F
:100E30000000C607CC0D4A0D00004E0E0000000059
:100E4000000000000000000000000000D007680E55
:100E5000680E340E0000E0370000000000000000C3
:100E6000000000000000D9074E0E4E0E340E0000A8
:100E7000B836000000000000000000000000000084
:100E8000E1070000000000000000C739000000007A
:100E900000000000000000000000710700000000DA
:100EA000820EB60E000000000000000000000000EE
:100EB000000000000F07860FD00E9C0E0000F034DB
:100EC0009E03010000000000000001000000160762
:100ED000B60EEA0E9C0E0000653CAA037F000000DF
:100EE00001000000010000001F07D00E040F9C0E3F
:100EF0000000793800000000000000000000000041
:100F000000002707EA0E1E0F9C0E0000653CA70399
:100F10006400000019000000190000002E07040FF3
:100F2000380F9C0E0000213B000000000000000074
:100F300000000000000035071E0F520F9C0E00003D
:100F4000A43A0000000000000000000000000000C3
:100F50003C07380F6C0F9C0E0000F03401010100BB
:100F6000000000000000010000004307520F860F40
:100F70009C0E0000F0349903010000000000000006
:100F8000010000004A076C0FB60E9C0E0000F03402
:100F900000010100000000000000010000006A07DD
:100FA000B20F883FB70300000000000000000000FF
:100FB0000000C40FFC3F0304002D310100000000BD
:100FC00010270000D60F883FBB0300000000000080
:100FD000000000000000E80FFC3F0704002D310175
:100FE0000000000010270000FA0F883FBF03000038
:100FF000000000000000000000000C10FC3F0B048B
:10100000002D310100000000102700001E10883F55
:10101000C3030000000000000000000000003010CA
:10102000FC3F0F04002D31010000000010270000DC
:101030004210883FC70300000000000000000000CD
:1010400000000000C73900000000000000000000A0
:101050000000000066109535000000000000000050
:101060000000000000007810C32C00000000000009
:1010700000000000000000000000C7390000000070
:10108000000000000000000000001C089C0EA00FE3
:1010900054102020556E6B6E002020556E6B6E0034
:1010A0005654533230300056545331303000565479
:1010B0005320363000564E4520333500564E4520DD
:1010C000313500564E45202036007253742E204F85
:1010D0004B005375726520590053757265206E0080
:1010E000202020204F6B00202020204F6B0020204C
:1010F00020204F6B00436F646520200053617665AC
:101100004F6B00536176652045005361766520532F
:1011100000536176652043004572722E2020310015
:10112000202020204F6B002020206F6666002020AA
:1011300020204F6B002020206F666600202020209A
:101140004F6B00762E6465762E4F6B004574616C94
:101150004F6B004572722E20203100202020204F3E
:101160006B00202020204F6B00202020204F6B00A0
:10117000202020204F6B00202020204F6B002020BB
:1011800020204F6B00202020204F6B002020206F5C
:10119000464600202020206F6E00202020202020A6
:1011A0000020536C6565700000407A10F35A00A06F
:1011B000724E18090010A5D4E80000E87648170020
:1011C00000E40B54020000CA9A3B000000E1F50560
:1011D000000080969800000040420F000000A086AA
:1011E00001000000102700000000E80300000000DC
:1011F0006400000000000A00000000000100000080
:1012000000002C76D888DC674F0823DFC1DFAE5999
:10121000E1B1B796E5E3E453C63AE651997696E82C
:10122000E6C28426EB898C9B62ED407C6FFCEFBCB0
:101230009C9F40F2BAA56FA5F490055A2AF75C93DB
:101240006B6CF9676DC11BFCE0E40D47FEF520E611
:10125000B500D0ED902E0300943577050080841EF4
:10126000080000204E0A000000C80C333333330F4F
:10127000986E12831141EF8D2114893BE65516CFEC
:10128000FEE6DB18D1844B381BF77C1D901DA4BBF8
:10129000E424203284725E228100C9F124ECA1E5AD
:1012A0003D27140F190F11241FBECFEFD0E1DEBF71
:1012B000CDBF13E0A0E0B1E0E4E2FDED00E00BBF44
:1012C00002C007900D92A639B107D9F717E0A6E939
:1012D000B3E001C01D92AA3BB107E1F712E100E0C3
:1012E000C4EAD2E140E006C022974109FE014BBFAB
:1012F0000E94A967C23AD1074007B1F70E94110DB9
:101300000C94806E0C94000081309105A9F48EE05D
:1013100090E00E94CF678093A2039093A30380E69E
:1013200094E00E94864785EB94E00E94F31587EBDA
:1013300094E00E948A1A0895009741F487EB94E0A4
:101340000E94C61A80E694E00E94374808951092E1
:10135000960310929A0310929803E091A203F091E1
:10136000A30380E28083E091A203F091A303818331
:101370002091A6038091A80390E0820F911D0E9406
:101380007A6B0E94756B8093A8031092E30310920E
:10139000E4031092E5031092E6031092E703109223
:1013A000E8031092E9031092EA031092EB03109203
:1013B000EC031092ED031092EE031092EF031092E3
:1013C000F0031092F1031092F2031092F3031092C3
:1013D000F4031092F5031092F6038091A703809313
:1013E000A40310921704109218041092190410927A
:1013F0001A041092330410923204109234041092A2
:1014000035041092360410923704109238048FEF8E
:10141000809339041092D60610929D0382ED90E0DD
:101420000E94EA6B91E0882309F490E090939E0378
:1014300010922B0481E080932C0410922D041092C2
:101440002E0485E08093050188E080930601809357
:10145000070180E090E0DC018093610490936204D6
:10146000A0936304B09364041092600410929D04EE
:1014700010929E0410929F041092A004109299045E
:1014800010929A0410929B0410929C041092B80639
:101490001092B7061092BB061092BC061092BD06C1
:1014A0001092BE061092C1061092C2061092C30698
:1014B0001092C4060E94315008958F929F92AF926D
:1014C000BF92CF92DF92EF92FF920F931F938EE124
:1014D0000E940C508823B9F04091CF035091D00363
:1014E0006091D1037091D20387EB94E00E94E71AD8
:1014F00087EB94E00E94551B87EB94E00E94721BDF
:101500000E94175803C060E070E0CB0120910501F4
:10151000283009F411C1293009F44BC1253009F0F4
:101520008CC12091380421FF05C01092380421E0BD
:1015300020939D032091380422FF0CC010923804A0
:1015400020912E04213019F410922E0403C021E0C2
:1015500020932D042091380423FFAAC030912E043B
:101560003130A1F410923804409198032091D606AE
:10157000442329F43093980320642F7D04C01092F3
:1015800098032F7B20622093D606B5C0FFB6F8944F
:1015900020911B0490901C04B0911D04A0911E0486
:1015A000F0911F04E091200450912104D090220476
:1015B0004091CB063091CC068090CD06A090CE060F
:1015C000B090CF06C090D0060091D106E090D20630
:1015D000122F141B41E0211708F040E0292D231B96
:1015E00031E0921608F030E0922E941A41E029156D
:1015F00008F040E0342B4B2F481921E0B41708F0D5
:1016000020E0B42FB31B31E04B1708F030E0232B60
:101610004A2F4A1931E0A41708F030E0A42FA21B8A
:1016200021E04A1708F020E0322B4F2F4B1921E020
:10163000F41708F020E0F42FF31B31E04F1708F007
:1016400030E0232B4E2F4C1931E0E41708F030E046
:10165000E42FE21B21E04E1708F020E0322B452F4B
:10166000401B21E0541708F020E0542F531B01E0E9
:10167000451708F000E0202B3D2D3E19321BFFBE20
:101680001230C9F59920B9F5BB23A9F5AA2399F51C
:10169000FF2389F5EE2379F5552369F5332359F5B1
:1016A00020912F04222339F521E02093A10323C0A8
:1016B0002FB7F89410911B04B0911C04A0911D0445
:1016C000F0911E04E0911F045091200440912104E8
:1016D000309122041093CB06B093CC06A093CD0694
:1016E000F093CE06E093CF065093D0064093D106F8
:1016F0003093D2062FBF2091380424FF05C01092EA
:10170000380428E020930501209100014091A203B4
:101710005091A303222369F02091AC032F5F209303
:10172000AC030E9434178091AC0381508093AC03CA
:1017300084C00E94341781C08091A2039091A303BA
:101740006AED75E00E948E6B8091380484FF05C0BD
:101750001092380485E0809305018091380482FF5F
:1017600008C01092380481E080932B0485E08093B8
:1017700005018091380481FF12C010923804109244
:10178000E3031092E4031092E5031092E6038091C4
:10179000D6068F7E8093D60685E0809305018091E2
:1017A000380483FF4AC01092380489E08093050111
:1017B00044C08091380481FF05C01092380485E050
:1017C000809305019FB6F89420911B0430911C046E
:1017D00040911D0450911E0460911F0470912004DB
:1017E0008091210490912204E3E0AE2EBB24CC240E
:1017F000DD24EE24FF2400E010E00E94A85E232BED
:10180000242B252B262B272B282B292B4091A20379
:101810005091A303222359F06091E3037091E403F4
:101820008091E5039091E6030E94341705C0CA0138
:1018300063ED75E00E948E6B9FBE809132049091A3
:101840003304009709F4D4C08091320483FF08C0A8
:101850008091A2039091A3036BEC75E00E948E6BC4
:101860008091320485FF0DC08091D60680688093F8
:10187000D6068091A2039091A30363EC75E00E94C9
:101880008E6B8091320484FF08C08091A2039091F6
:10189000A3036BEB75E00E948E6B8091320480FF96
:1018A0001DC08091A2039091A30362EB75E00E949A
:1018B0008E6BE091C506F091C6068091A2039091CF
:1018C000A30309958FEF9FEBA1E281509040A040C8
:1018D000E1F700C0000081E08093A1038091320411
:1018E00081FF39C08091A2039091A30369EA75E05A
:1018F0000E948E6BE091C506F091C6068091A2030E
:101900009091A30309958FEF9FEBA1E28150904046
:10191000A040E1F700C000000E94582C8091A20373
:101920009091A30361EA75E00E948E6BE091C50679
:10193000F091C6068091A2039091A30309958FEFC1
:101940009FE3A5E681509040A040E1F700C0000071
:1019500081E08093A1038091320482FF1DC08091B9
:10196000A2039091A30368E975E00E948E6BE09159
:10197000C506F091C6068091A2039091A303099534
:101980008FEF9FEBA1E281509040A040E1F700C0B3
:10199000000081E08093A1038091320486FF2DC076
:1019A0008091D60680688093D6068091A20390919C
:1019B000A30360E975E00E948E6BE091C506F0918B
:1019C000C6068091A2039091A30309958FEF9FE330
:1019D000A5E681509040A040E1F700C00000809152
:1019E000D6068F778093D60681E08093A10305C049
:1019F0008091D6068F778093D606E091C506F09148
:101A0000C6068091A2039091A30309951F910F919F
:101A1000FF90EF90DF90CF90BF90AF909F908F900E
:101A20000895AF92BF92CF92DF92EF92FF920F9301
:101A30001F93CF93DF930E948F1C0E94F415809117
:101A40002F04882319F48EE190E202C082E592E22D
:101A50009093C6068093C5068091A2039091A3033C
:101A600069E875E00E948E6BE091C506F091C606AC
:101A70008091A2039091A30309950E948513882366
:101A800069F08BE491E00E94EA6B80933104E0E915
:101A9000F0E125913491C9010E942A440E947F31CE
:101AA0000E944B32882329F4809132048260809313
:101AB00032040E940933882329F48091320484601F
:101AC000809332048091320490913304009709F49A
:101AD0007AC08091320480FF1AC08091A203909155
:101AE000A30360E875E00E948E6BE091C506F0915B
:101AF000C6068091A2039091A30309958FEF9FEBF7
:101B0000A1E281509040A040E1F700C00000809128
:101B1000320481FF36C08091A2039091A30367E74E
:101B200075E00E948E6BE091C506F091C60680912B
:101B3000A2039091A30309958FEF9FEBA1E281503F
:101B40009040A040E1F700C000000E94582C809116
:101B5000A2039091A3036FE675E00E948E6BE09163
:101B6000C506F091C6068091A2039091A303099542
:101B70008FEF9FE7A3E481509040A040E1F700C0C1
:101B800000008091320482FF1AC08091A2039091DC
:101B9000A30366E675E00E948E6BE091C506F091A6
:101BA000C6068091A2039091A30309958FEF9FEB46
:101BB000A1E281509040A040E1F700C000000E94E7
:101BC00027450E943F450E942E23DD24DA94ECE84D
:101BD000F0E1C591D491EEE8F0E105911491EAE8C5
:101BE000F0E1E590F490F4E1CF2E0E94F4150E940C
:101BF000A70985EB94E060E071E00E946E1581E03A
:101C00000E9470486091A70370E080E090E00E941D
:101C1000CA650E9438480E948444882331F080E6D7
:101C200094E040E050E0BA0106C080E694E040E075
:101C300050E068EC72E40E944F46789480912F0443
:101C4000882309F064C00E9427158FEF9FE5A3E069
:101C500081509040A040E1F700C00000209199041D
:101C600030919A0440919B0450919C0480916904A6
:101C700090916A04A0916B04B0916C042817390705
:101C80004A075B0750F580910801853149F40E94AD
:101C90004445C09208018091A1038823C1F1C1C0CD
:101CA0008FB7F89490911B0490911C0490911D049F
:101CB00090911E0490911F04909120049091210412
:101CC000909122048FBF0E9427158091380481FFD4
:101CD000A8C08D7F809338041AC08091A203909190
:101CE000A3036EE575E00E948E6BE091C506F0914E
:101CF000C6068091A2039091A30309958FEF9FEBF5
:101D0000A1E281509040A040E1F700C000000E9495
:101D1000041C8FEF9FEBA1E281509040A040E1F7BF
:101D200000C000000E944E1C8FEF9FEBA1E281508B
:101D30009040A040E1F700C000000E94AB1C0AC028
:101D40000E949113882309F06CC08091A10388231D
:101D500009F067C00E942F16882391F30E949913FF
:101D6000882329F18091A2039091A30367E575E090
:101D70000E948E6BE091C506F091C6068091A20389
:101D80009091A30309958091380483FF04C0C70193
:101D90000E94074206C0877F80933804C8010E94D2
:101DA0002A4485EB94E060E071E00E946E1580911A
:101DB0003804982F94719431B9F48B7E8093380451
:101DC0008091A2039091A30360E575E00E948E6B61
:101DD000E091C506F091C6068091A2039091A303FD
:101DE0000995CE010E9407428FB7F89490911B0489
:101DF00090911C0490911D0490911E0490911F04D9
:101E00009091200490912104909122048FBF109210
:101E10003804D09239040E945D0A8091A10388237E
:101E2000D1F30E942745E1CE81E090E00E94840931
:101E3000089580E090E00E9484090895813019F4AB
:101E4000379A339A0895882311F433983798089570
:101E5000853011F4359A0895863009F4359808953F
:101E6000EF92FF920F931F93CF93DF93C09188005F
:101E7000D091890020E030EC48EA50E00E94E3660F
:101E80007B018C016091B5047091B604882777FDC1
:101E90008095982F28EE33E040E050E00E94E36602
:101EA0009B01AC01C801B7010E943567C20FD31F67
:101EB00080918600909187008C179D0730F4809167
:101EC000860090918700C81BD90BD0938500C093E2
:101ED000840080917D00886080937D00DF91CF91A8
:101EE0001F910F91FF90EF900895369A089586E024
:101EF0000E94280F8DE08093D30680EC87B987B1CC
:101F000087B986B18F6086B963E070E080E090E0C9
:101F10000E94300F089586E00E94280F8EE0809383
:101F2000D30680EC87B987B1836087B986B18F60AB
:101F300086B963E070E080E090E00E94300F089581
:101F400086E00E94280F8FE08093D30680EC87B94B
:101F5000399A86B18F6086B963E070E080E090E0E6
:101F60000E94300F089586E00E94280F80E1809340
:101F7000D30680EC87B9389A86B18F6086B963E062
:101F800070E080E090E00E94300F089520919A0365
:101F90008091990490919A04A0919B04B0919C0423
:101FA000222309F4B2C02091690430916A0440915F
:101FB0006B0450916C0482179307A407B50708F0CF
:101FC00010C120916D0430916E0440916F045091C6
:101FD000700482179307A407B50708F004C1209185
:101FE000710430917204409173045091740482170B
:101FF0009307A407B50770F4209175043091760417
:102000004091770450917804281739074A075B07F5
:1020100008F4EBC02091790430917A0440917B045C
:1020200050917C0482179307A407B50770F42091A0
:102030007D0430917E0440917F04509180042817E4
:1020400039074A075B0708F4D2C020918104309118
:102050008204409183045091840482179307A4075B
:10206000B50770F42091850430918604409187046F
:1020700050918804281739074A075B0708F4B9C04C
:102080002091890430918A0440918B0450918C04F2
:1020900082179307A407B50770F420918D0430913F
:1020A0008E0440918F0450919004281739074A07F5
:1020B0005B0708F4A0C020919104309192044091F4
:1020C00093045091940482179307A407B50770F402
:1020D0002091950430919604409197045091980472
:1020E000281739074A075B0708F487C02091950431
:1020F000309196044091970450919804281739071D
:102100004A075B0708F46BC07AC020916D043091D8
:102110006E0440916F045091700482179307A407D6
:10212000B50708F06EC0209171043091720440919F
:1021300073045091740482179307A407B50770F4D1
:1021400020917D0430917E0440917F045091800461
:10215000281739074A075B0708F455C02091810406
:102160003091820440918304509184048217930734
:10217000A407B50768F42091850430918604409146
:10218000870450918804281739074A075B07E8F14C
:102190002091890430918A0440918B0450918C04E1
:1021A00082179307A407B50768F42091950430912E
:1021B00096044091970450919804281739074A07CC
:1021C0005B0728F120919504309196044091970483
:1021D00050919804281739074A075B07D0F480E02C
:1021E000089581E0089582E0089583E0089584E0F1
:1021F000089585E0089586E0089587E0089588E0D1
:1022000008958BE008958CE008958DE008958EE0A8
:1022100008958FE008951F920F920FB60F920BB69C
:102220000F921124AF92BF92CF92DF92EF92FF9262
:102230000F931F932F933F934F935F936F937F93CE
:102240008F939F93AF93BF93EF93FF9364B175B157
:1022500080E090E02091F7033091F8034091F9037A
:102260005091FA030E94E3667B018C017AE0169597
:102270000795F794E7947A95D1F78091D3068E303D
:10228000A9F18F3020F48D3009F024C207C08F30BF
:1022900009F481C1803109F01DC2BDC1E09217046B
:1022A000F09218040093190410931A040E948444B5
:1022B000882341F081E080939A038091D606816063
:1022C0008D7F0FC010929A0380916004882329F4B7
:1022D00080E694E061E00E948E468091D6068E7F73
:1022E00082608093D6060E948B0FF4C18091970381
:1022F000882399F02091FB033091FC034091FD036A
:102300005091FE03C801B7010E94E36624E630E065
:1023100040E050E00E9435674AC080919A032091C6
:10232000FB033091FC034091FD035091FE03882391
:1023300041F58091170490911804A0911904B0916F
:102340001A0460E9A62EB12CC12CD12CA81AB90A06
:10235000CA0ADB0AC801B7010E94E36624E630E03E
:1023600040E050E00E943567A20EB31EC41ED51E89
:10237000A0929904B0929A04C0929B04D0929C04BB
:102380001EC0A0901704B0901804C0901904D090FB
:102390001A04C801B7010E94E36624E630E040E079
:1023A00050E00E9435672A193B094C095D092093CA
:1023B000990430939A0440939B0450939C040E9488
:1023C000C60F009132040F73009332041091D706A8
:1023D0001C7F1093D706893098F4863008F06FC0C0
:1023E000833051F1843030F48130D1F0823009F003
:1023F000BEC016C0843079F1853009F0B8C042C043
:102400008D3009F474C08E3020F48B3008F4AFC0E6
:1024100022C08E3009F488C08F3009F0A8C0A1C056
:1024200080E090E0DC018093610490936204A093CB
:102430006304B09364049BC0609161047091620472
:10244000809163049091640420E030E040E05FE319
:102450000E94C8640EC06091610470916204809112
:1024600063049091640420E030E040E05FE30E9468
:10247000C9646093610470936204809363049093D1
:10248000640475C06091610470916204809163047A
:102490009091640420E030E040E85FE30E94C9646A
:1024A0006093610470936204809363049093640466
:1024B00000680093320411601093D70658C06091F1
:1024C000610470916204809163049091640420E03F
:1024D00030E040E85FE30E94C96460936104709358
:1024E00062048093630490936404116034C060912B
:1024F000610470916204809163049091640420E00F
:1025000030E040E85FE30E94C96460936104709327
:102510006204809363049093640412601093D7065E
:1025200000680093320423C06091610470916204DA
:10253000809163049091640420E030E040E85FE320
:102540000E94C96460936104709362048093630481
:102550009093640412601093D706006400933204D1
:1025600003C012601093D70681E08093A1034091CD
:10257000610450916204609163047091640480E688
:1025800094E00E944F4680912F04882309F0A2C056
:102590000E94A00F9FC080912C048130A1F5609112
:1025A000A70370E080E090E023E430E040E050E0FA
:1025B0000E94E3662AE030E040E050E00E94356788
:1025C0008091A403E216F3060407150710F081506A
:1025D00001C08F5F8093A4038091A40387FF02C092
:1025E0001092A4038091A40385361CF084E68093A6
:1025F000A4036091A403772767FD7095872F972F19
:102600000E94CC6503C060E070E0CB010E943848B6
:102610000E94B30F5FC0E0929D04F0929E0400936D
:102620009F041093A0048091A1049091A204A09112
:10263000A304B091A4048E159F05A007B107B0F4C0
:1026400060916104709162048091630490916404CC
:1026500020E030E040E85FE30E94C86460936104DA
:1026600070936204809363049093640480E694E022
:102670000E94A44680919A03882301F16091650429
:1026800070916604809167049091680420E030E0C6
:1026900048EC52E40E942D65882381F480E090E0AC
:1026A000DC018093610490936204A0936304B0936F
:1026B000640480E694E060E00E948E4640916104EC
:1026C00050916204609163047091640480E694E028
:1026D0000E944F46FF91EF91BF91AF919F918F91D3
:1026E0007F916F915F914F913F912F911F910F912A
:1026F000FF90EF90DF90CF90BF90AF900F900BBE08
:102700000F900FBE0F901F90189581E00B9980E0FD
:10271000089581E00C9980E0089581E00D9980E0B2
:10272000089581E00E9980E0089581E0B39980E0FA
:10273000089581E0B49980E008950E9485139091F6
:102740003904882369F090FF05C0809138048160C6
:1027500080933804809139048E7F8093390408C0B7
:10276000916090933904809138048E7F809338046F
:102770000E94891390913904882369F091FF05C064
:1027800080913804826080933804809139048D7F71
:102790008093390408C09260909339048091380482
:1027A0008D7F809338040E948D1390913904882383
:1027B00069F092FF05C080913804846080933804EA
:1027C000809139048B7F8093390408C09460909382
:1027D0003904809138048B7F809338040E949113D0
:1027E00090913904882369F093FF05C080913804E3
:1027F00088608093380480913904877F80933904FE
:1028000008C098609093390480913804877F809342
:1028100038040E94951390913904882369F094FF3D
:1028200005C0809138048061809338048091390418
:102830008F7E8093390408C0906190933904809111
:1028400038048F7E809338040E9499139091390444
:10285000882369F095FF05C08091380480628093D9
:102860003804809139048F7D8093390408959062F3
:1028700090933904809138048F7D809338040895B3
:102880001F920F920FB60F920BB60F9211242F9337
:102890003F934F935F936F937F938F939F93AF93E8
:1028A000BF93EF93FF93109289001092880080915C
:1028B000D4068F5F8093D4060E949D138091D70623
:1028C000882331F00E942D3480917D00826003C006
:1028D00080917D008D7F80937D008091D4068A3029
:1028E00009F04DC01092D40640911B0430911C0495
:1028F00020911D0490911E0480911F04F0912004EA
:10290000E0912104A0912204642F6F5F51E06417CD
:1029100008F050E0530F41E0531708F040E0420F39
:1029200031E0421708F030E0390F21E0391708F0A4
:1029300020E0280F91E0281708F090E09F0F81E039
:102940009F1708F080E08E0F71E08E1708F070E09E
:102950007A0F60931B0450931C0440931D04309322
:102960001E0420931F0490932004809321047093ED
:10297000220480912F04882311F40E94770FFF9185
:10298000EF91BF91AF919F918F917F916F915F91E7
:102990004F913F912F910F900BBE0F900FBE0F9054
:1029A0001F9018951F920F920FB60F920BB60F92B1
:1029B00011242F933F934F935F936F937F938F9344
:1029C0009F93AF93BF93EF93FF930E94750FEDE733
:1029D000F0E08081877F8083FF91EF91BF91AF917D
:1029E0009F918F917F916F915F914F913F912F9127
:1029F0000F900BBE0F900FBE0F901F9018951F9257
:102A00000F920FB60F920BB60F9211242F933F9394
:102A10004F935F936F937F938F939F93AF93BF93E6
:102A2000EF93FF930E946634FF91EF91BF91AF91B6
:102A30009F918F917F916F915F914F913F912F91D6
:102A40000F900BBE0F900FBE0F901F901895DF9246
:102A5000EF92FF920F931F938FB7F894E0911B04AE
:102A600070911C0460911D0450911E0440911F043C
:102A70003091200420912104909122048FBFAFEF68
:102A8000BBE61197F1F700C000008FB7F894D09023
:102A90001B04E0901C04F0901D0400911E04109192
:102AA0001F04B0912004A0912104F0912204DE16AD
:102AB00071F4E71661F4F61651F4051741F4141792
:102AC00031F4B31721F4A21711F4F917B9F28FBF3B
:102AD0001F910F91FF90EF90DF900895EF92FF927A
:102AE000CF93DF93FC0160837183E62EE7017E01C3
:102AF000F72EE7019701220F331FC70143E0880F2C
:102B0000991F4A95E1F7280F391F442737FD409553
:102B1000542F60E070EC88EA90E00E945767309391
:102B2000870020938600409186005091870022E321
:102B300030E0429FC001439F900D529F900D1124A1
:102B400064E670E00E940E677093830060938200D9
:102B500080917D00806180937D00C034D105D9F0E3
:102B6000C134D1053CF4C130D10569F0C830D1057C
:102B7000F9F40DC091E0C030D90789F084E0C0308D
:102B8000D807B1F410C080918A0081600FC0809195
:102B90008A0082600BC080918A00836007C08091A8
:102BA0008A00846003C080918A00856080938A00D7
:102BB000DF91CF91FF90EF90089587B78E7F87BF09
:102BC000109289001092880010928700109286005F
:102BD000109285001092840010928300109282005F
:102BE00010928A00089508958FEB8BBB8FEF8ABBFC
:102BF0008EE188BB86EE87BB15BA88E884BB8CEC77
:102C00009AE00197F1F700C000008CE982BB80EFE9
:102C100081BB8BE783B912B81092620010926100F9
:102C2000109265001092640019BE81E00E941E0F90
:102C300060E875E280E090E00E94F849609113043A
:102C40007091140480911504909116040E942B4AEF
:102C500081E00E94E84981E00E941E4A089582E0D6
:102C60000E94E34D8FEF9FE5A3E081509040A0408C
:102C7000E1F700C0000082E00E947E4E80913204A5
:102C800083FF1CC08091A2039091A30361EE75E0C5
:102C90000E948E6BE091C506F091C6068091A2035A
:102CA0009091A30309958FEF9FEBA1E28150904093
:102CB000A040E1F700C0000080E0089581E00895A1
:102CC000FB0197FF06C02DE22083909581959F4FD1
:102CD00002C020E2208327E280319207D4F420E270
:102CE000218333E0883E9307B4F422838436910530
:102CF000A4F423838A3091051CF4248325E001C0C9
:102D000024E0BF01620F711D4AE050E00E94956B04
:102D1000089521E0F6CF22E0F4CF23E0F2CFFA01CC
:102D200097FF0AC02DE2208390958095709561955C
:102D30007F4F8F4F9F4F0AC0603A26E8720721E00D
:102D4000820720E0920764F520E22083603137E2B9
:102D5000730730E0830730E0930724F520E22183F6
:102D6000683E33E0730730E0830730E09307E4F414
:102D700022836436710581059105C4F423836A308A
:102D80007105810591051CF4248325E001C024E030
:102D9000AF01420F511D2AE030E00E94B66B08954A
:102DA00020E0F6CF21E0F4CF22E0F2CF23E0F0CF15
:102DB000CF92DF92EF92FF920F931F93CF93DF9307
:102DC0006B017C01EA0120E030E0A9010E942D6541
:102DD00087FF07C08DE28883F7FAF094F7F8F09444
:102DE0000CC0C701B60120E030E04AE754E40E947D
:102DF0002D6587FF04C080E2888301E001C000E008
:102E0000C701B60120E030E048EC52E40E942D6595
:102E100087FF06C0FE01E00FF11D80E280830F5F97
:102E2000C701B60120E030E040E251E40E942D6588
:102E300087FF06C0FE01E00FF11D80E280830F5F77
:102E4000CE01800F911D8C01C701B60141E022E047
:102E50000E94AD671F82DF91CF911F910F91FF906C
:102E6000EF90DF90CF900895CF93DF93EA01209108
:102E7000AC03233009F4D4C0243030F4213059F0AD
:102E8000223009F049C261C0243009F43BC1253029
:102E900009F042C2B5C197FF0AC02DE22883909580
:102EA0008095709561957F4F8F4F9F4F0BC0603815
:102EB00026E9720728E9820720E092070CF030C269
:102EC00020E22883603432E473073FE0830730E078
:102ED00093070CF027C220E22983603A36E8730793
:102EE00031E0830730E093070CF01EC22A83603183
:102EF00037E2730730E0830730E093070CF016C227
:102F00002B83683E23E0720720E0820720E09207CF
:102F100024F420E32C8325E001C024E0AE01420F1D
:102F2000511D2AE030E00E94B66B8091AC03E6E0D0
:102F3000F0E0E81BF109EC0FFD1F80819EE2908319
:102F40009091AC03E7E0F0E0E2C197FF0AC02DE208
:102F5000288390958095709561957F4F8F4F9F4FF7
:102F60000BC0603836E9730738E9830730E0930710
:102F70000CF0DEC120E22883603422E472072FE0E7
:102F8000820720E092070CF0D5C120E22983603A45
:102F900036E8730731E0830730E093070CF0CCC1CB
:102FA0002A83603127E2720720E0820720E092073F
:102FB0000CF0C4C120E32B83683E33E0730730E09C
:102FC000830730E093070CF0BBC12C836436710596
:102FD000810591051CF42D8326E001C025E0AE019A
:102FE000420F511D2AE030E00E94B66B8091AC0385
:102FF000E6E0F0E0E81BF109EC0FFD1F90818EE2A6
:1030000080838091AC03E7E0F0E0E81BF109EC0F6E
:10301000FD1F808190839091AC03E8E0F0E077C1E0
:1030200020918402213011F42BE701C02DE7288381
:1030300097FF0AC02DE22983909580957095619540
:103040007F4F8F4F9F4F0BC0603422E472072FE0F9
:10305000820720E092070CF075C120E22983603AD4
:1030600036E8730731E0830730E093070CF06CC15A
:1030700020E32A83603137E2730730E0830730E0D2
:1030800093070CF063C12B83683E33E0730730E095
:10309000830730E093070CF05BC12C836436710525
:1030A000810591051CF42D8326E001C025E0AE01C9
:1030B000420F511D2AE030E00E94B66B8091AC03B4
:1030C000E6E0F0E0E81BF109EC0FFD1F80819EE2D5
:1030D00090839091AC03E7E0F0E0E91BF109EC0F7D
:1030E000FD1F908180838091AC03E8E0F0E0E81B55
:1030F000F109EC0FFD1F808190839091AC03E9E012
:10310000F0E005C197FF0AC02DE2288390958095D5
:10311000709561957F4F8F4F9F4F0BC0603826E9A8
:10312000720728E9820720E092070CF013C120E221
:103130002883603432E473073FE0830730E093076D
:103140000CF00AC120E32983603A36E8730731E0C6
:10315000830730E093070CF001C12A83603137E226
:10316000730730E0830730E093070CF0F9C02B833E
:10317000683E33E0730730E0830730E093070CF0DC
:10318000F1C02C8364367105810591051CF42D83F3
:1031900026E001C025E0AE01420F511D2AE030E0DB
:1031A0000E94B66B8091AC03E6E0F0E0E81BF10909
:1031B000EC0FFD1F90818EE280838091AC03E7E0ED
:1031C000F0E0E81BF109EC0FFD1F808190839091E6
:1031D000AC03E8E0F0E0E91BF109EC0FFD1F908182
:1031E00080838091AC03E9E0F0E0E81BF109EC0F8B
:1031F000FD1F808190839091AC03EAE0F0E087C0EE
:1032000097FF0AC02DE2288390958095709561956F
:103210007F4F8F4F9F4F0BC0603826E9720728E918
:10322000820720E092070CF09FC020E328836034DF
:1032300032E473073FE0830730E093070CF096C059
:1032400020E32983603A36E8730731E0830730E0F2
:1032500093070CF08DC02A83603137E2730730E0AA
:10326000830730E093070CF085C02B83683E33E082
:10327000730730E0830730E093070CF07DC02C83A8
:1032800064367105810591051CF42D8326E001C08B
:1032900025E0AE01420F511D2AE030E00E94B66BDE
:1032A0008091AC03E6E0F0E0E81BF109EC0FFD1FB4
:1032B00080819EE290839091AC03E7E0F0E0E91B0F
:1032C000F109EC0FFD1F908180838091AC03E8E051
:1032D000F0E0E81BF109EC0FFD1F808190839091D5
:1032E000AC03E9E0F0E0E91BF109EC0FFD1F908170
:1032F00080838091AC03EAE0F0E0E81BF109EC0F79
:10330000FD1F808190839091AC03EBE0F0E0E91B1E
:10331000F109EC0FFD1F80831F82DF91CF9108958B
:1033200020E0FCCD21E0FACD22E0F8CD23E0F6CD7F
:1033300020E055CE21E053CE22E051CE23E04FCE07
:1033400024E04DCE21E0B3CE22E0B1CE23E0AFCEDB
:1033500024E0ADCE20E01FCF21E01DCF22E01BCF27
:1033600023E019CF24E017CF20E093CF21E091CFC5
:1033700022E08FCF23E08DCF24E08BCF60916504D6
:103380007091660480916704909168040E94996529
:10339000DC01CB016091A2037091A3030E9460162F
:1033A000E091A203F091A30382E68083E091A2035F
:1033B000F091A30381E48183E091A203F091A30340
:1033C00084E782836091650470916604809167044C
:1033D0009091680420E030E0A9010E942D65E09101
:1033E000A203F091A303882309F046C08EE28383F1
:1033F000809109018230C1F0833049F1813009F0B8
:103400004FC0E091A203F091A30380E28483E09196
:10341000A203F091A3038583E091A203F091A3039B
:103420008FE5868382E025C0E091A203F091A3039B
:1034300080E28483E091A203F091A3038583E0916D
:10344000A203F091A3038DE3868383E012C0E09191
:10345000A203F091A30380E28483E091A203F091A0
:10346000A3038583E091A203F091A3038EE78683F3
:1034700081E080930901089585818683E091A2030C
:10348000F091A30384818583E091A203F091A303CB
:1034900083818483E091A203F091A3038EE283836E
:1034A0000895FC0180819181A281B381FB0120817B
:1034B000318142815381821B930BA40BB50B1816EB
:1034C00019061A061B063CF00097A105B10531F05C
:1034D0002FEF3FEF05C021E030E002C020E030E0F8
:1034E000C9010895CF93DF93262F372FF901282F95
:1034F000392FE90120E009C081919191A191B19109
:1035000089939993A993B9932F5F2417A8F3DF9117
:10351000CF910895FC01EF5FFD4F1082FC01E05058
:10352000FE4F1082FC01EC5FFD4F1082118212826F
:103530001382865F9D4FFC011082118212821382DA
:1035400008950F931F93FC01E050FE4F1082FC0181
:10355000EF5FFD4F1082FC01E65FFD4F108211828C
:1035600012821382FC01EC5FFD4F108211821282E5
:103570001382FC01E85FFD4F718360838E5F9D4F76
:10358000FC01118300831F910F910895FC01E0500D
:10359000FE4F1082FC01EF5FFD4F1082FC01E65FE1
:1035A000FD4F1082118212821382FC01EC5FFD4FED
:1035B0001082118212821382FC01E85FFD4F11829A
:1035C00010828E5F9D4FFC01118210820895FC01D4
:1035D000E65FFD4F4083518362837383FC01EF5F9D
:1035E000FD4F2081222311F51092D506FC01E85FE2
:1035F000FD4F20813181E0E00BC0EE0FFF1FEE0F89
:10360000FF1FE80FF91F4083518362837383EA2F02
:10361000AE2FAF5FF0E0E217F30778F31092D50614
:103620008F5F9D4F21E0FC0120830895FC01E05055
:10363000FE4F2081DC01A85FBD4F2130D9F42091DD
:10364000D506E22FF0E0EE0FFF1FEE0FFF1FE80F91
:10365000F91F40835183628373832F5F2093D506C4
:1036600030E08D919C91119728173907E9F4109259
:10367000D50608951092D5062D913C911197E0E062
:103680000BC0EE0FFF1FEE0FFF1FE80FF91F408367
:10369000518362837383EA2FAE2FAF5FF0E0E217AE
:1036A000F30778F31092D50608950F931F93CF93E5
:1036B000DF93BC018C0100501F4FEC01C85FDD4F50
:1036C000C80148810E94721A68817981C80144E06A
:1036D00050E021E53AE10E945269DF91CF911F91BC
:1036E0000F9108951F93CF93DF93EC01FC01EE5FE0
:1036F000FD4F8081918196958795182FFE01E85F97
:10370000FD4FA081B181A81BB90B60E070E0CB0137
:1037100011C0E05CFF4FEE0FFF1FEE0FFF1FEC0F1D
:10372000FD1F2081318142815381620F731F841FED
:10373000951F1F5FE12FF0E0EA17FB0750F3CC5F06
:10374000DD4F31979F01442737FD4095542F0E944C
:103750005767288339834A835B83DF91CF911F9119
:1037600008954091CF035091D0036091D10370919F
:10377000D2038091C1069091C206A091C306B09178
:10378000C406841B950BA60BB70B81509E4FAF4F01
:10379000BF4F8F3F23E0920720E0A20720E0B2074F
:1037A00020F481E08093B70602C01092B70687EB41
:1037B00094E00E94E71A87EB94E00E94551B87EB88
:1037C00094E00E94721B6091BB067091BC068091D0
:1037D000BD069091BE062AE030E040E050E00E9435
:1037E0005767E091A203F091A303CA01B901AF01A9
:1037F0000E948F16E091C506F091C6068091A20343
:103800009091A303099508951F938091A20390912D
:10381000A3036EEE75E00E948E6B8091A60364E6B2
:103820000E9402676091A2037091A3036B5F7F4FB8
:1038300090E04AE050E00E94956B8091A6031AE068
:10384000612F0E9402670E940267892F2091A203C4
:103850003091A3032A5F3F4F90E0B9014AE050E066
:103860000E94956B8091A603612F0E940267892FA9
:103870006091A2037091A303695F7F4F90E04AE0DB
:1038800050E00E94956BE091C506F091C6068091CC
:10389000A2039091A30309951F9108958091A2031B
:1038A0009091A30369EE75E00E948E6B6091A20374
:1038B0007091A3036C5F7F4F80E090E04AE050E09E
:1038C0000E94956BE091A203F091A3038EE28583A1
:1038D0006091A2037091A3036A5F7F4F89E090E03B
:1038E0004AE050E00E94956B6091A2037091A3039F
:1038F000695F7F4F84E090E04AE050E00E94956B62
:10390000E091A203F091A3031086E091C506F09127
:10391000C6068091A2039091A30309950895809112
:1039200061008B7F8093610080916200846080934E
:1039300062008FEF9FE5A3E081509040A040E1F747
:1039400000C00000029B04C081E080932F04089512
:1039500010922F0408958091A2039091A30367E42D
:1039600076E00E948E6B8091D60684688093D6069E
:10397000E091C506F091C6068091A2039091A30341
:1039800009958FEF9FE1AAE081509040A040E1F7B8
:1039900000C000008091A2039091A30360E476E050
:1039A0000E948E6B8091D606837788608093D606BE
:1039B000E091C506F091C6068091A2039091A30301
:1039C00009958FEF9FE1AAE081509040A040E1F778
:1039D00000C000008091A2039091A30364E376E00D
:1039E0000E948E6B8091D606877F80618093D60679
:1039F000E091C506F091C6068091A2039091A303C1
:103A000009958FEF9FE1AAE081509040A040E1F737
:103A100000C000008091A2039091A3036DE276E0C4
:103A20000E948E6B8091D6068F7E80628093D60630
:103A3000E091C506F091C6068091A2039091A30380
:103A400009958FEF9FE1AAE081509040A040E1F7F7
:103A500000C000008091A2039091A30361E276E090
:103A60000E948E6B8091D6068F7D80648093D606EF
:103A7000E091C506F091C6068091A2039091A30340
:103A800009958FEF9FE1AAE081509040A040E1F7B7
:103A900000C000008091A2039091A3036AE176E048
:103AA0000E948E6B8091D6068F7B80628093D606B3
:103AB000E091C506F091C6068091A2039091A30300
:103AC00009958FEF9FE1AAE081509040A040E1F777
:103AD00000C000008091A2039091A3036EE076E005
:103AE0000E948E6B8091D6068F7D80618093D60672
:103AF000E091C506F091C6068091A2039091A303C0
:103B000009958FEF9FE1AAE081509040A040E1F736
:103B100000C000008091A2039091A30367E076E0CB
:103B20000E948E6B8091D6068F7E88608093D60629
:103B3000E091C506F091C6068091A2039091A3037F
:103B400009958FEF9FE1AAE081509040A040E1F7F6
:103B500000C000008091A2039091A3036BEF75E079
:103B60000E948E6B8091D606877F84608093D606F4
:103B7000E091C506F091C6068091A2039091A3033F
:103B800009958FEF9FE1AAE081509040A040E1F7B6
:103B900000C000008091A2039091A30364EF75E040
:103BA0000E948E6B8091D6068B7F8093D606E09123
:103BB000C506F091C6068091A2039091A3030995D2
:103BC0008FEF9FE1AAE081509040A040E1F700C054
:103BD00000000895DF92EF92FF920F931F93CF930F
:103BE000DF93EC01E881E052EE3560F4F0E0EE0F97
:103BF000FF1FEE0FFF1FE65FFE4F80819181A281C4
:103C0000B38104C080E090E0A0EEBBE029812E32B9
:103C100019F0A06111E001C012E0FE01E10FF11DF9
:103C2000208130E0205230402935310508F04FC066
:103C30002A5B3F4FF901EE0FFF1F0590F491E02D35
:103C40000994AE60B06F45C0A46043C0B06C41C081
:103C5000A260B0693EC0A260B0683BC0A660B06818
:103C600038C0B06936C0B06534C0B06F32C0A4602F
:103C7000B06E2FC0A260B06C2CC0B0662AC0A66027
:103C8000B06E27C0B06E25C0A66023C0A460B0642B
:103C900020C0AE60B06E1DC0B0611BC0AC60B0672C
:103CA00018C0A260B06215C0A860B06212C0AC605B
:103CB000B0640FC0A860B0680CC0B0680AC0AC6047
:103CC000B06307C0A86005C0AA60B06F02C0AE6054
:103CD000B06BD12ED394FE01ED0DF11D20812A335E
:103CE00029F4D39420E030E0A90104C021E030E0C1
:103CF00040E050E0ED2DFF27E7FDF095EC0FFD1FB4
:103D0000E081EE3211F0A16001C0D394ED2DFF27C8
:103D1000E7FDF095EC0FFD1FE080FF24F701B09761
:103D2000E935F105F0F5E156FF4FEE0FFF1F059065
:103D3000F491E02D09942E6135C0286134C02C61C6
:103D400003C02C6030C0206190622DC020610EC085
:103D5000226129C02E6121C02860906424C02A619C
:103D6000F3CF2C61FACF2C611EC02C6190661BC072
:103D70002861EACF2A6017C02E6115C0226013C0E7
:103D80002E600BC02460E0CF246009C0286005C00D
:103D9000206105C0206107C02660906C04C0906857
:103DA00002C02661906ED394ED2DFF27E7FDF095BC
:103DB000EC0FFD1FE081EE3211F0906101C0D39451
:103DC000ED2DFF27E7FDF095EC0FFD1FE080FF24B0
:103DD000F701B097EA35F10508F040C0E850FF4F11
:103DE000EE0FFF1F0590F491E02D09943F6037C05E
:103DF0003C6036C0396003C0366032C038609260C3
:103E00002FC038600CC039602BC03F6023C03D60BC
:103E1000F6CF3E60946024C03E6022C03E60966053
:103E20001FC03C60ECCF35601BC03F6019C03460E0
:103E300013C03E6014C0316013C037600BC03260E5
:103E4000DECF326009C0346005C0386005C038601C
:103E500007C033609C6004C0986002C03B609E60F5
:103E6000D394ED2DFF27E7FDF095EC0FFD1FE081CA
:103E7000EA3311F0306101C0D394ED2DFF27E7FD47
:103E8000F095EC0FFD1FE081EE3211F0916001C062
:103E9000D394ED2DFF27E7FDF095EC0FFD1FE0809B
:103EA000FF24F701B097E935F10508F04BC0EE5A51
:103EB000FE4FEE0FFF1F0590F491E02D0994306244
:103EC000476042C0466041C03062446003C0436006
:103ED0003CC04460806239C0446011C030624460BC
:103EE00034C04260806431C03062476027C03062B5
:103EF0004660F0CF4760F6CF476027C047608066D6
:103F000024C04660E7CF306242601FC03062476025
:103F10001CC030624760806A18C0306216C03062D0
:103F200043600CC04160D6CF41600AC0426006C009
:103F3000446006C0446009C030624160806C05C0C6
:103F4000806803C030624560806ED394ED2DFF27FA
:103F5000E7FDF095EC0FFD1FE081EE3211F080617E
:103F600001C0D394ED2DFF27E7FDF095EC0FFD1F69
:103F7000E080FF24F701B097EF35F10508F043C06A
:103F8000E555FE4FEE0FFF1F0590F491E02D0994CB
:103F900048633AC0486301C040638B6036C04061EB
:103FA000FCCF48600AC0406330C0486025C0406212
:103FB00085604062846029C04862836026C0406397
:103FC000856023C0406318C086601FC0406387605F
:103FD0001CC04062F2CF406214C048630DC048600C
:103FE00014C048630CC0406182600FC0406109C0CA
:103FF000406205C0896009C0816007C048618C606B
:1040000004C0886002C048618F602095309540955B
:104010005095FB0124833583468357838095909583
:10402000A095B09580839183A283B383DF91CF91D4
:104030001F910F91FF90EF90DF9008951F93DF93F2
:10404000CF93CDB7DEB728970FB6F894DEBF0FBE7B
:10405000CDBF19821A821B821C821D821E821F8282
:104060001886BE016F5F7F4F0E94EA1D8D819E8181
:10407000AF81B885A0648D839E83AF83B88780911C
:104080002C04813011F410E801C010E08091D606B4
:1040900086FF05C081E00E940F34106404C080E0F8
:1040A0000E940F341F7B8091D60685FF05C081E0FA
:1040B0000E940334106204C080E00E9403341F7D1C
:1040C0008091D60684FF05C081E00E94F73310611D
:1040D00004C080E00E94F7331F7E8091D60683FFE4
:1040E00005C081E00E94EB33186004C080E00E94AC
:1040F000EB33177F8091D60682FF05C081E00E94D6
:10410000DF33146004C080E00E94DF331B7F8091A6
:10411000D60681FF05C081E00E94D333126004C03F
:1041200080E00E94D3331D7F8091D60680FF05C0BA
:1041300081E00E94C733126004C080E00E94C73350
:104140001D7F8091D60687FF02C081E001C080E01C
:104150000E941B3487E090E0212F30E0A901082E57
:1041600002C0559547950A94E2F740FD02C0969823
:1041700001C0969A959A959801974FEF8F3F9407B3
:1041800069F729E130E08D819E81AF81B885022EEB
:1041900004C0B695A795979587950A94D2F780FDA8
:1041A00002C0969801C0969A959A95980000215061
:1041B00030408FEF2F3F380731F72FE130E0898112
:1041C0009A81AB81BC81022E04C0B695A7959795C4
:1041D00087950A94D2F780FD02C0969801C0969AFE
:1041E000959A95980000215030404FEF2F3F3407AB
:1041F00031F787E090E029E030E0A901082E02C005
:10420000559547950A94E2F740FD02C0969801C083
:10421000969A959A9598000001974FEF8F3F9407D3
:1042200061F7979A949A00009798949828960FB6F9
:10423000F894DEBF0FBECDBFCF91DF911F910895DF
:104240002F923F924F925F926F927F928F929F92A6
:10425000AF92BF92CF92DF92EF92FF920F931F9394
:10426000CF93DF93E82EE7017E01F92EE70140E0CE
:10427000F2E0BF2EE0E4CE2E55E7D52E15EB35ED5E
:10428000E32E20EDF22E01EE53E790EAA92E87EA05
:10429000982EB0EF8B2EA0EB7A2EF1EC6F2EE0E88B
:1042A0005E2E31EB432E23ED322E93EA292E37EF8B
:1042B000B8C090E0FC01B097EA35F10508F0A9C05C
:1042C000E65FFD4F842F992787FD9095EE0FFF1F26
:1042D0000590F491E02D0994860F971FFC01108240
:1042E0009FC0860F971F27ED03C0860F971F24E1FD
:1042F000FC01208395C0860F971F26EEF9CF860F0D
:10430000971F26E7F5CF860F971F25E3F1CF860F7E
:10431000971F23EFEDCF860F971F26E1E9CF860F7A
:10432000971FFC0130837CC0860F971F27E7E0CFE3
:10433000860F971F20E2DCCF860F971F27EBD8CF81
:10434000860F971F21EFD4CF860F971F23ECD0CF76
:10435000860F971F24EFCCCF860F971F23EEC8CF71
:10436000860F971FFC0120825BC0860F971FFC0100
:10437000308256C0860F971FFC01408251C0860FC5
:10438000971FFC0150824CC0860F971FFC01608272
:1043900047C0860F971FFC01708242C0860F971F8F
:1043A000FC0180823DC0860F971FFC01908238C0BF
:1043B000860F971FFC01A08233C0860F971FFC0158
:1043C00050832EC0860F971FFC01008329C0860FE3
:1043D000971FFC01F08224C0860F971FFC01E0822A
:1043E0001FC0860F971FFC0110831AC0860F971FEE
:1043F000FC01D08215C0860F971FFC01C08210C03F
:10440000FC013197E60FF71F80818860808341505F
:1044100007C0E42FFF27E7FDF095E60FF71FB082F6
:104420004F5F8991882309F044CFDF91CF911F918D
:104430000F91FF90EF90DF90CF90BF90AF909F9043
:104440008F907F906F905F904F903F902F90089546
:1044500047E09798FC01208130E0042E02C035959A
:1044600027950A94E2F720FF02C0969801C0969A19
:10447000979A415070F79798089547E09598FC01F6
:10448000208130E0042E02C0359527950A94E2F78A
:1044900020FF02C0969801C0969A959A415070F7F5
:1044A00095980895AF92BF92CF92DF92EF92FF92CC
:1044B0000F931F93DF93CF93CDB7DEB727970FB638
:1044C000F894DEBF0FBECDBF1982BE016E5F7F4F75
:1044D0000E9420218091D60686FF06C081E00E94BE
:1044E0000F348981806205C080E00E940F34898189
:1044F0008F7D89838091D60685FF06C081E00E946A
:1045000003348981806105C080E00E940334898181
:104510008F7E89838091D60684FF06C081E00E9449
:10452000F7338981886005C080E00E94F733898174
:10453000877F89838091D60683FF06C081E00E9431
:10454000EB338981846005C080E00E94EB33898170
:104550008B7F89838091D60682FF06C081E00E940E
:10456000DF338981826005C080E00E94DF3389816A
:104570008D7F89838091D60681FF07C081E00E94EC
:10458000D33389818160898303C080E00E94D33363
:104590008091D60680FF06C081E00E94C7338981E2
:1045A000816005C080E00E94C73389818E7F898346
:1045B0008091D60687FF02C081E001C080E00E94A2
:1045C0001B346091A70370E080E090E00E94CA6510
:1045D0005B016C0160E070E0CB010E943848949A66
:1045E00000E010E0B2E0EB2EF12CEC0EFD1EC70156
:1045F000800F911F0E943D220F5F1F4F0630110553
:10460000B1F7CE0101960E943D22949800E010E09F
:10461000A2E0EA2EF12CEC0EFD1EC701800F911FC7
:104620000E9428220F5F1F4F06301105B1F76A2D37
:104630007B2D8C2D9D2D0E94384827960FB6F8941F
:10464000DEBF0FBECDBFCF91DF911F910F91FF90C5
:10465000EF90DF90CF90BF90AF900895EF92FF92D0
:104660000F931F93DF93CF9300D00F92CDB7DEB798
:1046700086E190E00E94EA6B8093020183ED90E076
:104680000E94EA6B8093AE03E82FF0E0EE0FFF1F6D
:10469000EE0FFF1FE051FB4F25913591459154914D
:1046A000209313043093140440931504509316047C
:1046B00088E091E00E94EA6B8093A50384E190E09A
:1046C0000E94EA6B8093A60384ED90E00E94EA6B5F
:1046D0008093A70381ED90E00E94EA6B8093AA0388
:1046E0008AE091E00E94EA6B8093AC0387E091E05E
:1046F0000E94EA6B8093AD0385E190E00E94EA6B33
:104700008093AF0389E091E00E94EA6B8093B0034D
:1047100087ED90E00E94F86B9093B4038093B3030D
:1047200085ED90E00E94F86B9093B6038093B503FB
:104730008BE390E00E94F26B6093F7037093F803B1
:104740008093F9039093FA038FE390E00E94F26B59
:104750002BE232E040E050E00E94E36628EE33E0D6
:1047600040E050E00E9435672093FB033093FC0348
:104770004093FD035093FE0387E190E00E94F26BAB
:1047800060930304709304048093050490930604DB
:104790008BE190E00E94F26B609307047093080431
:1047A0008093090490930A048FE190E00E94F26BD9
:1047B00060930B0470930C0480930D0490930E048B
:1047C00083E290E00E94F26B60930F0470931004F8
:1047D000809311049093120407E210E027EBE22E7D
:1047E00023E0F22EC8010E94F26BF70161937193EE
:1047F000819391937F010C5F1F4FF0E00B331F07F4
:1048000089F789ED90E00E94EA6B91E0882309F432
:1048100090E0909301018AED90E00E94EA6B91E0B4
:10482000882309F490E0909399038BE491E00E942F
:10483000EA6B809331048BED90E00E94EA6B91E08B
:10484000882309F490E09093000184E191E00E94B4
:10485000F26BE0900301F090040100E010E0A80189
:1048600097010E94E3666093D3037093D40380930F
:10487000D5039093D60380E591E00E94F26BA801E6
:1048800097010E94E3666093D7037093D8038093E7
:10489000D9039093DA038CE491E00E94F26BA801B3
:1048A00097010E94E3666093DB037093DC038093BF
:1048B000DD039093DE038BE091E00E94F26BA80190
:1048C00097010E94E3666093DF037093E003809397
:1048D000E1039093E20383E191E00E94EA6B80930D
:1048E000A903E82FF0E0EE0FFF1FEE0FFF1FE45EBD
:1048F000FA4F2591359145915491822F932FA42FF2
:10490000B52F8093230490932404A0932504B0939F
:10491000260484E591E00E94F86B9093B2038093A3
:10492000B10388E191E00E94EA6B8093AB03E82F2A
:10493000F0E0EE0FFF1FEE0FFF1FE05CFA4F259136
:10494000359145915491822F932FA42FB52F8093A9
:10495000270490932804A0932904B0932A0483E4A5
:1049600090E00E94F26BA80197010E94E3666093B9
:104970003A0470933B0480933C0490933D048BE491
:1049800090E00E94F26BA80197010E94E366609399
:10499000420470934304809344049093450483E558
:1049A00090E00E94F26BA80197010E94E366609379
:1049B0004A0470934B0480934C0490934D048BE510
:1049C00090E00E94F26BA80197010E94E366609359
:1049D000520470935304809354049093550487E4D5
:1049E00090E00E94F26B60933E0470933F048093CA
:1049F0004004909341048FE490E00E94F26B609336
:104A0000460470934704809348049093490487E5D3
:104A100090E00E94F26B60934E0470934F04809379
:104A20005004909351048FE590E00E94F26B6093E4
:104A300056047093570480935804909359048FE060
:104A400091E00E94F86B9093C0068093BF0681E1CD
:104A500091E00E94F86B9093BA068093B90682E0C9
:104A600060E971E00E94944969837A838B83AAE5A7
:104A7000B4E0FE01319683E001900D928150E1F7A0
:104A800082E060EA71E00E94944969837A838B83B3
:104A9000ADE5B4E0FE01319683E001900D928150C6
:104AA000E1F70F900F900F90CF91DF911F910F9131
:104AB000FF90EF9008951F93FC014FEF5FEFA1E28D
:104AC000B0E113C0319120E04227532718E0CA011A
:104AD000880F991F57FF04C0AC014A275B2701C00C
:104AE000AC011150A1F7615070406115710551F78B
:104AF000CA011F910895AF92BF92CF92DF92EF92B9
:104B0000FF920F931F93CF93DF93EC017B010FEF85
:104B10001FEF41E2C42E40E1D42E18C0CE010E9406
:104B2000EA6BB82EAA240A251B25219628E0C80185
:104B3000880F991F17FF04C08C010C251D2501C08B
:104B40008C012150A1F70894E108F108E114F10467
:104B500029F7C801DF91CF911F910F91FF90EF903E
:104B6000DF90CF90BF90AF900895AF92BF92CF9259
:104B7000DF92EF92FF920F931F93CF93DF9386E123
:104B800090E00E94EA6B90910201981709F024C10D
:104B9000C7E1D0E003E014E0CE010E94F26B9B017C
:104BA000AC01F80181919191A191B1918F012817E8
:104BB00039074A075B0709F00FC16096F0E0C73577
:104BC000DF0751F7C7E2D0E007EB13E0CE010E9408
:104BD000F26B9B01AC01F80181919191A191B1918E
:104BE0008F01281739074A075B0709F0F5C060965F
:104BF000F0E0C737DF0751F78BE390E00E94F26BDC
:104C00009B01AC018091F7039091F803A091F90307
:104C1000B091FA03281739074A075B0709F0DCC08F
:104C20008FE390E00E94F26B2BE232E040E050E034
:104C30000E94E36628EE33E040E050E00E943567D2
:104C40008091FB039091FC03A091FD03B091FE03C2
:104C5000281739074A075B0709F0BEC085E190E0D5
:104C60000E94EA6B9091AF03891709F0B5C083E405
:104C700090E00E94F26B5B016C0160913A047091CC
:104C80003B0480913C0490913D0454E6E52EF12CC8
:104C9000012D112DA80197010E945767A216B30696
:104CA000C406D50609F098C087E490E00E94F26B34
:104CB0009B01AC0180913E0490913F04A09140047F
:104CC000B0914104281739074A075B0709F084C0EF
:104CD0008BE490E00E94F26B5B016C0160914204F6
:104CE000709143048091440490914504A801970178
:104CF0000E945767A216B306C406D50609F06CC019
:104D00008FE490E00E94F26B9B01AC01809146041D
:104D100090914704A0914804B0914904281739079D
:104D20004A075B0709F058C083E590E00E94F26BE8
:104D30005B016C0160914A0470914B0480914C04BA
:104D400090914D04A80197010E945767A216B306DF
:104D5000C406D50609F040C087E590E00E94F26BDA
:104D60009B01AC0180914E0490914F04A09150049E
:104D7000B0915104281739074A075B0769F58BE59D
:104D800090E00E94F26B7B018C0160915204709163
:104D90005304809154049091550424E630E040E09F
:104DA00050E00E945767E216F30604071507A1F4C6
:104DB0008FE590E00E94F26BE1E020915604309183
:104DC000570440915804509159046217730784079F
:104DD000950719F4E0E001C0E1E08E2FDF91CF915B
:104DE0001F910F91FF90EF90DF90CF90BF90AF9009
:104DF000089582ED90E00E94EA6B21E030E0882384
:104E000011F420E030E080919E0390E028173907EC
:104E100009F064C081ED90E00E94EA6B9091AA03D2
:104E2000891709F05BC083ED90E00E94EA6B9091D6
:104E3000AE03891709F052C084ED90E00E94EA6B3E
:104E40009091A703891709F049C085ED90E00E9471
:104E5000F86B2091B5033091B60382179307F1F5F3
:104E600087ED90E00E94F86B2091B3033091B4037A
:104E70008217930799F589ED90E00E94EA6B21E093
:104E800030E0882311F420E030E08091010190E0CF
:104E90002817390719F58AED90E00E94EA6B21E0A6
:104EA00030E0882311F420E030E08091990390E015
:104EB00028173907A9F48BED90E00E94EA6B21E0F6
:104EC00030E0882311F420E030E04091000150E010
:104ED00081E02417350729F480E0089581E00895E2
:104EE00081E00895AF92BF92CF92DF92EF92FF924E
:104EF0000F931F9387E091E00E94EA6B9091AD03BE
:104F0000891709F079C088E091E00E94EA6B9091DE
:104F1000A503891709F070C089E091E00E94EA6B4F
:104F20009091B003891709F067C08AE091E00E9470
:104F3000EA6B9091AC03891709F05EC08BE091E0B9
:104F40000E94F26B5B016C01E0900301F0900401A0
:104F500000E010E06091DF037091E0038091E103D5
:104F60009091E203A80197010E945767A216B30629
:104F7000C406D50609F040C08FE091E00E94F86BAE
:104F80002091BF063091C00682179307A9F581E1F1
:104F900091E00E94F86B2091B9063091BA06821711
:104FA000930751F583E191E00E94EA6B9091A90388
:104FB000891711F584E191E00E94F26B5B016C01AD
:104FC0006091D3037091D4038091D5039091D6035F
:104FD000A80197010E945767A216B306C406D5061A
:104FE00059F488E191E00E94EA6B91E02091AB03D3
:104FF000821719F490E001C091E0892F1F910F9161
:10500000FF90EF90DF90CF90BF90AF900895EF9218
:10501000FF920F931F9386E190E0609102010E943E
:10502000FE6B40910304509104046091050470915B
:10503000060487E190E00E940B6C409103045091BC
:105040000404609105047091060485E690E00E94D6
:105050000B6C409107045091080460910904709111
:105060000A048BE190E00E940B6C40910704509180
:1050700008046091090470910A0489E690E00E9496
:105080000B6C40910B0450910C0460910D047091D5
:105090000E048FE190E00E940B6C40910B04509144
:1050A0000C0460910D0470910E048DE690E00E9456
:1050B0000B6C40910F045091100460911104709199
:1050C000120483E290E00E940B6C40910F04509117
:1050D0001004609111047091120481E790E00E9425
:1050E0000B6C4091B7035091B8036091B903709174
:1050F000BA0387E290E00E940B6C4091B703509195
:10510000B8036091B9037091BA0385E790E00E94FB
:105110000B6C4091BB035091BC036091BD03709137
:10512000BE038BE290E00E940B6C4091BB03509158
:10513000BC036091BD037091BE0389E790E00E94BB
:105140000B6C4091BF035091C0036091C1037091FB
:10515000C2038FE290E00E940B6C4091BF0350911C
:10516000C0036091C1037091C2038DE790E00E947B
:105170000B6C4091C3035091C4036091C5037091BF
:10518000C60383E390E00E940B6C4091C3035091EF
:10519000C4036091C5037091C60381E890E00E944A
:1051A0000B6C4091C7035091C8036091C903709183
:1051B000CA0387E390E00E940B6C4091C7035091B3
:1051C000C8036091C9037091CA0385E890E00E940A
:1051D0000B6C4091F7035091F8036091F9037091C3
:1051E000FA038BE390E00E940B6C4091F70350911F
:1051F000F8036091F9037091FA0389E890E00E9446
:105200000B6C6091FB037091FC038091FD03909106
:10521000FE0328EE33E040E050E00E94E366FBE24C
:10522000EF2EF2E0FF2E012D112DA80197010E9413
:1052300035678FE390E0BA01A9010E940B6C609181
:10524000FB037091FC038091FD039091FE0328EE17
:1052500033E040E050E00E94E366A80197010E941D
:1052600035678DE890E0BA01A9010E940B6C85E1D9
:1052700090E06091AF030E94FE6B83E690E0609146
:10528000AF030E94FE6B60913A0470913B048091E1
:105290003C0490913D04E4E6EE2EF12C012D112DFD
:1052A000A80197010E94576783E490E0BA01A90121
:1052B0000E940B6C60913A0470913B0480913C0415
:1052C00090913D04A80197010E94576781E990E001
:1052D000BA01A9010E940B6C40913E0450913F0419
:1052E000609140047091410487E490E00E940B6C4F
:1052F00040913E0450913F046091400470914104FC
:1053000085E990E00E940B6C609142047091430427
:105310008091440490914504A80197010E94576729
:105320008BE490E0BA01A9010E940B6C60914204E9
:10533000709143048091440490914504A801970121
:105340000E94576789E990E0BA01A9010E940B6C9D
:10535000409146045091470460914804709149047B
:105360008FE490E00E940B6C4091460450914704FA
:1053700060914804709149048DE990E00E940B6CA3
:1053800060914A0470914B0480914C0490914D04BB
:10539000A80197010E94576783E590E0BA01A9012F
:1053A0000E940B6C60914A0470914B0480914C04F4
:1053B00090914D04A80197010E94576781EA90E0FF
:1053C000BA01A9010E940B6C40914E0450914F0408
:1053D000609150047091510487E590E00E940B6C3D
:1053E00040914E0450914F046091500470915104CB
:1053F00085EA90E00E940B6C609152047091530416
:105400008091540490915504A80197010E94576718
:105410008BE590E0BA01A9010E940B6C60915204E7
:10542000709153048091540490915504A801970100
:105430000E94576789EA90E0BA01A9010E940B6CAB
:10544000409156045091570460915804709159044A
:105450008FE590E00E940B6C4091560450915704E8
:1054600060915804709159048DEA90E00E940B6C91
:1054700085E190E06EE470E00E947B25BC0188E04D
:1054800090E00E94136C85E190E06EE470E00E9471
:105490007B25BC018EE090E00E94136C2091BB0341
:1054A0003091BC034091BD035091BE038091B7037E
:1054B0009091B803A091B903B091BA03280F391F96
:1054C0004A1F5B1F8091BF039091C003A091C1034D
:1054D000B091C203280F391F4A1F5B1F8091C3037D
:1054E0009091C403A091C503B091C603280F391F42
:1054F0004A1F5B1F8091A603E091F703F091F80328
:10550000E80FF11D6091C7037091C8038091C90332
:105510009091CA03260F371F481F591FE20FF31F30
:10552000CF010E947A6B0E94756B682F8093A6034F
:105530008823C9F384E190E00E94FE6B1F910F91D4
:10554000FF90EF900895CF93DF9382ED90E060910C
:105550009E030E94FE6B8DED90E060919E030E9481
:10556000FE6BC1EDD0E0CE016091AA030E94FE6BFC
:105570008CED90E06091AA030E94FE6B83ED90E0B9
:105580006091AE030E94FE6B8EED90E06091AE03E1
:105590000E94FE6B84ED90E06091A7030E94FE6B79
:1055A0008FED90E06091A7030E94FE6B6091B503C0
:1055B0007091B60385ED90E00E94136C6091B50385
:1055C0007091B60380EE90E00E94136C6091B3037B
:1055D0007091B40387ED90E00E94136C6091B30367
:1055E0007091B40382EE90E00E94136C89ED90E01C
:1055F000609101010E94FE6B84EE90E060910101D8
:105600000E94FE6B8AED90E0609199030E94FE6B10
:1056100085EE90E0609199030E94FE6B8BED90E027
:10562000609100010E94FE6B86EE90E060910001A7
:105630000E94FE6BCE016BE070E00E947B25BC01F6
:105640008AE090E00E94136CCE016BE070E00E9453
:105650007B25BC0180E190E00E94136CDF91CF912B
:10566000089587E091E06091AD030E94FE6B89E1AF
:1056700091E06091AD030E94FE6B88E091E0609143
:10568000A5030E94FE6B8AE191E06091A5030E9450
:10569000FE6B89E091E06091B0030E94FE6B8BE1AC
:1056A00091E06091B0030E94FE6B8AE091E060910E
:1056B000AC030E94FE6B8CE191E06091AC030E9410
:1056C000FE6B209103013091040140E050E06091B5
:1056D000DF037091E0038091E1039091E2030E9467
:1056E00057678BE091E0BA01A9010E940B6C2091F1
:1056F00003013091040140E050E06091DF037091BC
:10570000E0038091E1039091E2030E9457678DE1ED
:1057100091E0BA01A9010E940B6C6091BF067091E3
:10572000C0068FE091E00E94136C6091BF067091FB
:10573000C00681E291E00E94136C6091B9067091FD
:10574000BA0681E191E00E94136C6091B9067091F4
:10575000BA0683E291E00E94136C83E191E06091CC
:10576000A9030E94FE6B85E291E06091A9030E946B
:10577000FE6B209103013091040140E050E0609104
:10578000D3037091D4038091D5039091D6030E94E6
:10579000576784E191E0BA01A9010E940B6C209146
:1057A00003013091040140E050E06091D303709117
:1057B000D4038091D5039091D6030E94576786E267
:1057C00091E0BA01A9010E940B6C88E191E060911F
:1057D000AB030E94FE6B8AE291E06091AB030E94F2
:1057E000FE6B87E091E062E170E00E947B25BC01E6
:1057F0008CE090E00E94136C87E091E062E170E041
:105800000E947B25BC0182E190E00E94136C2091F4
:10581000BB033091BC034091BD035091BE03809106
:10582000B7039091B803A091B903B091BA03280FC0
:10583000391F4A1F5B1F8091BF039091C003A09145
:10584000C103B091C203280F391F4A1F5B1F80910B
:10585000C3039091C403A091C503B091C603280F60
:10586000391F4A1F5B1F8091A603E091F703F09157
:10587000F803E80FF11D6091C7037091C803809190
:10588000C9039091CA03260F371F481F591FE20F03
:10589000F31FCF010E947A6B0E94756B682F809373
:1058A000A6038823C9F384E190E00E94FE6B08956B
:1058B00081ED90E061E00E94FE6B8CED90E061E094
:1058C0000E94FE6B82ED90E061E00E94FE6B8DED28
:1058D00090E061E00E94FE6B83ED90E062E00E9448
:1058E000FE6B8EED90E062E00E94FE6B84ED90E036
:1058F0006BE40E94FE6B8FED90E06BE40E94FE6B08
:1059000085ED90E060E070E00E94136C80EE90E026
:1059100060E070E00E94136C87ED90E060E070E062
:105920000E94136C82EE90E060E070E00E94136CC5
:1059300089ED90E061E00E94FE6B84EE90E061E012
:105940000E94FE6B8AED90E061E00E94FE6B85EEA6
:1059500090E061E00E94FE6B8BED90E060E00E94C1
:10596000FE6B86EE90E060E00E94FE6B8AE090E0C5
:105970006AE171E80E94136C80E190E06AE171E8ED
:105980000E94136C0895CF92DF92EF92FF920F93D3
:105990001F9384E190E060E00E94FE6B72E0C72EEE
:1059A000C092020180E09AE0A0E0B0E08093F703AB
:1059B0009093F803A093F903B093FA038BE292E07B
:1059C000A0E0B0E08093FB039093FC03A093FD0361
:1059D000B093FE031092FF03109200041092010492
:1059E000109202041092B7031092B8031092B903F8
:1059F0001092BA0386E99DE0A0E0B0E08093BB037B
:105A00009093BC03A093BD03B093BE0383E491E0E5
:105A1000A0E0B0E08093BF039093C003A093C103C4
:105A2000B093C20387EA91E0A0E0B0E08093C303A3
:105A30009093C403A093C503B093C6038BE092E098
:105A4000A0E0B0E08093C7039093C803A093C9037C
:105A5000B093CA03D09031048D2D833009F459C11D
:105A6000843030F4813079F0823009F00DC4C8C040
:105A70008D2D853009F49FC2853008F407C2863029
:105A800009F002C446C383E08093AF0380E69AEE38
:105A9000A0E0B0E08093030490930404A093050475
:105AA000B09306041092070410920804109209049F
:105AB00010920A0410920B0410920C0410920D0420
:105AC00010920E0410920F04109210041092110400
:105AD00010921204E0900301F090040100E010E045
