:100000000C9401080C9430080C9430080C943008BF
:100010000C9430080C9418420C9430080C9430085E
:100020000C9409420C9430080C9430080C9430085D
:100030000C9430080C9430080C9430080C94300860
:100040000C9430080C9430080C944B480C943008F5
:100050000C9461470C94E30F0C9430080C94300816
:100060000C9430080C9430080C9418130C94AA13B8
:100070000C94D7130C9430080C94A44A0C943008B8
:100080000C944C4A0C9430080C943008DC1C201D55
:10009000201D201D201D201D201D201D201D201D78
:1000A000201D201D201D201D201D201D051D071D9C
:1000B0000A1D0D1D101D131D161D181D221D1B1DB3
:1000C000201D201D201D201D201D201D201DDF1C8A
:1000D000E11CE31CF81CE61CE91CEC1C201D201D87
:1000E000201D201D201D201DF21CFD1CFF1C201D9D
:1000F000201D131DF51CEE1CF01C201D021D201DD3
:10010000201D201D201D201D201D1D1D201DDF1C4C
:10011000E11CE31CF81CE61CE91CEC1C201D201D46
:10012000201D201D201D201DF21CFD1CFF1C201D5C
:10013000FA1C131DF51CEE1CF01C201D021D541D85
:100140008A1D8A1D8A1D8A1D8A1D8A1D8A1D8A1D77
:100150008A1D8A1D8A1D8A1D8A1D8A1D8A1D771D7A
:10016000791D7B1D7D1D7F1D811D831D851D8C1DA2
:10017000881D8A1D8A1D8A1D8A1D8A1D8A1D8A1D49
:10018000661D561D581D5A1D5C1D5F1D611D8A1D73
:10019000631D8A1D651D681D8A1D6A1D6C1D6F1DEE
:1001A0008A1D6E1D811D711D731D751D8A1D651DA6
:1001B0008A1D8A1D8A1D8A1D8A1D8A1D8A1D8A1D07
:1001C000661D561D581D5A1D5C1D5F1D611D8A1D33
:1001D000631D8A1D651D681D8A1D6A1D6C1D6F1DAE
:1001E0008A1D6E1D811D711D731D751D8A1D651D66
:1001F000AF1DE71DE71DE71DE71DE71DE71DE71D17
:10020000E71DE71DE71DE71DE71DD21DE71DE71DE3
:10021000D41DD61DD81DDA1DDC1DDE1DE01DE21D1E
:10022000E91DE51DE71DE71DE71DE71DE71DE71DAE
:10023000E71DC31DB11DB31DB51DB71DBA1DBC1DE6
:10024000E71DBE1DE71DE71DC01DE71DC21DC51D25
:10025000E71DE71DC71DDE1DCA1DCC1DCE1DE71DF8
:10026000E71DD01DE71DE71DE71DE71DE71DE71D85
:10027000E71DC31DB11DB31DB51DB71DBA1DBC1DA6
:10028000E71DBE1DE71DE71DC01DE71DC21DC51DE5
:10029000E71DE71DC71DDE1DCA1DCC1DCE1DE71DB8
:1002A000E71DD01D181E581E581E581E581E581ED9
:1002B000581E581E581E581E581E581E581E581E8E
:1002C000581E581E431E451E481E4A1E4C1E4E1EDA
:1002D000501E521E5B1E561E581E581E581E581E7B
:1002E000581E581E581E281E1B1E1D1E201E221E74
:1002F000251E581E271E2A1E581E271E2D1E581E3C
:10030000301E321E581E581E341E4E1E371E391EF9
:100310003C1E581E271E581E581E581E581E581E7A
:10032000581E3F1E581E281E1B1E1D1E201E221E4C
:10033000251E581E271E2A1E581E271E2D1E581EFB
:10034000301E321E581E581E341E4E1E371E391EB9
:100350003C1E581E271E7E1EB71EB71EB71EB71E98
:10036000B71EB71EB71EB71EB71EB71EB71EB71EE5
:10037000B71EB71EB71EA31EA51EA71EAA1EAC1E23
:10038000AE1EB01EB21EB91EB51EB71EB71EB71EDA
:10039000821EB71EB71EB71EB71EB71E871E891E48
:1003A000911E9B1E8B1EB71EB71EB71E8D1E901E64
:1003B000B71E931E961E981EB71E9A1EAE1E9D1E39
:1003C000B71EA11EB71EB71E9F1EB71EB71EB71EB3
:1003D000B71EB71E801EB71EB71EB71E871E891E0A
:1003E000911E9B1E8B1EB71EB71EB71E8D1E901E24
:1003F000B71E931E961E981EB71E9A1EAE1E9D1EF9
:10040000B71EA11EB71EB71E9F1EB71EB71EB71E72
:10041000B71E851E2020BD20BD20BD20BD20BD20D3
:10042000BD20BD20BD20BD20BD20BD20BD204C2055
:10043000B420BD20252029202F20332037209120D3
:100440003B203F2043204820BD20BD20BD20BD20B3
:10045000BD20BD20BD205020542058205C206020AD
:10046000642069206E207320BD20A5207820BD2047
:100470007D2082208720BD208C20912096209B20EB
:10048000A020BD20A520AA20BD20BD20BD20BD20CC
:10049000BD20AF20BD205020542058205C2060207B
:1004A000642069206E207320BD20A5207820BD2007
:1004B0007D2082208720BD208C20912096209B20AB
:1004C000A020BD20A520AA200100000002000000FD
:1004D000050000000A0000000F00000014000000EA
:1004E00019000000320000006400000096000000C7
:1004F00060090000C01200008025000040380000A4
:10050000004B0000807000000096000000E1000039
:10051000002C010000C2010000840300CDCC4C3D42
:10052000CDCCCC3D0000803E0000003F0000803F6D
:100530000000C03F000000400000A040000020413B
:10054000CDCCCC3D0000803E9A99993E0000003F02
:10055000206E6E656E750043616C69627200457253
:10056000722E202031006261742E4F660045727237
:100570002E20372E33007253742E204F4B004572BD
:10058000722E20372E32004572722E20372E310007
:100590004574616C6F6E006261742E64697300450E
:1005A00072722E20372E33007253742E204F4B0060
:1005B0004572722E20372E32004572722E20372E51
:1005C00031004572722E202033004572722E202099
:1005D0003100202069746F4700202053756E6E0033
:1005E0007665722E20392E3200432E622E2000397D
:1005F000393939393900382E382E382E382E382EE0
:10060000380037373737373700362E362E362E3606
:100610002E362E360035353535353500342E342E10
:10062000342E342E342E340033333333333300320C
:100630002E322E322E322E322E32003131313131E5
:100640003100302E302E302E302E302E30004361CF
:100650006C6962720020204574616C0053742E4EE8
:10066000756C6C0053742E4574616C00566F6C741D
:100670006167005265662E436F7200502E20566FE0
:100680006C7400562E20204261740044762E436F15
:100690007272004E2E205375627200537562722E74
:1006A000203100537562722E203200537562722E13
:1006B000203300537562722E2034006E6E782E75D2
:1006C000756700206469736372002020205365748D
:1006D00000502E4F6E2E4E756C004E65742E416488
:1006E00072004261756452740042726967687400F6
:1006F0006F666654696D004C43446F464600205354
:100700006F756E640041742E6E6C2E63720020490A
:100710006E666F7300436865636B2E420046572E0A
:1007200076657273005072656369730020205361AF
:100730007665004578742E53657400502E6E2E70C9
:10074000636E7400622E6E2E70636E740054722E8F
:1007500070636E740044672E41662E4474004D2E03
:10076000572E446973630044672E46742E537400F9
:100770004E722E6F66436E004E722E43742E766C50
:1007800000442E462E4F66662E430041742E6E6C3A
:100790002E6332007570702E626E64004F6E652E8F
:1007A00053742E76005273742E44656600564E457F
:1007B00020203600564E4520313500564E45203318
:1007C00035005654532036300056545331303000E3
:1007D000565453323030004B0B130A0000F107001F
:1007E0000000000000000000000000000000004EBB
:1007F00006C5090B08D70700007D3D00000000007A
:100800000000000000000000005506F1072508D791
:10081000070000083D00000000000000000000008C
:100820000000005C060B083F08D7070000903C0062
:100830000000000000000000000000000064062529
:1008400008C108D707590800000000000000000098
:10085000000000000000006C06A70873083F0800B5
:1008600000DD35CB038C0A0000FC0800000100000D
:1008700000730659088D083F080000EA3B0000009D
:1008800000000000000000000000007B067308A7C5
:10089000083F080000373B00000000000000000097
:1008A000000000000083068D0859083F080000067C
:1008B0003A00000000000000000000000000008B73
:1008C000063F08DB08D707000061398F03040000EA
:1008D0000001000000010000009306C1082909D7AB
:1008E00007F5080000000000000000000000000004
:1008F0000000009B060F090F09DB080000E13EFE27
:1009000003002D31010000000010270000BB06F598
:1009100008F508DB080000343E0204000000000077
:1009200000000000000000C306DB087709D707437A
:1009300009000000000000000000000000000000AE
:1009400000A3065D095D0929090000E13E060400D7
:100950002D31010000000010270000BB06430943B1
:100960000929090000343E0A0400000000000000CC
:100970000000000000C3062909C509D70791090036
:10098000000000000000000000000000000000ABBC
:1009900006AB09AB0977090000E13E0E04002D31DA
:1009A000010000000010270000BB069109910977A3
:1009B000090000343E1204000000000000000000A6
:1009C000000000C3067709F107D707DF0900000020
:1009D00000000000000000000000000000B306F965
:1009E00009F909C5090000E13E1604002D31010096
:1009F00000000010270000BB06DF09DF09C5090061
:100A000000343E1A04000000000000000000000056
:100A100000C306D707170B00002D0A0000000000D6
:100A20000000000000000000000000CA06FD0A47A8
:100A30000A130A000090317E03010000000000004C
:100A40000001000000D1062D0A610A130A000061AE
:100A5000398A037E0000000100000001000000DA76
:100A600006470A7B0A130A00003835000000000020
:100A7000000000000000000000E206610A950A1371
:100A80000A000061398703640000001900000019A2
:100A9000000000E9067B0AAF0A130A00000C3800C8
:100AA00000000000000000000000000000F00695BB
:100AB0000AC90A130A00008A37000000000000007B
:100AC00000000000000000F706AF0AE30A130A0066
:100AD0000090310101010000000000000001000051
:100AE00000FE06C90AFD0A130A00009031790301CD
:100AF00000000000000000010000000507E30A2DCF
:100B00000A130A00009031000101000000000000FB
:100B100000010000002507130A310B000000009BB4
:100B20003600000000000000000000000000002C63
:100B300007170B4B0B000000007340000000000083
:100B40000000000000000000003307310BD7070051
:100B5000000000CF3200000500000000000000008F
:100B6000000000A5074F0C7F0B0000000061398DCD
:100B7000036400000000000000010000003B076566
:100B80000B990B0000000061398503640000000030
:100B90000000000100000044077F0BB30B000000C1
:100BA00000613990036400000000000000010000B3
:100BB000004D07990BCD0B0000000061398C030537
:100BC00000000001000000010000005507B30BE722
:100BD0000B00000000DD35B303102700000000000B
:100BE00000010000005E07CD0B4F0C0000010C005F
:100BF000000000000000000000000000000000678E
:100C000007350C1B0CE70B0000A1387D06640000C3
:100C10000004000000020000007007010C350CE722
:100C20000B0000A1387706640000000000000002FD
:100C300000000078071B0C010CE70B0000003400DB
:100C4000000000000000000000000000008107E735
:100C50000B650B0000690C000000000000000000A4
:100C6000000000000000008B07830C830C4F0C0079
:100C7000009A3400000000000000000000000000A6
:100C8000009407690C690C4F0C00006633000000EB
:100C900000000000000000000000009C07000000B1
:100CA00000000000009B3600000000000000000073
:100CB00000000000002C07000000009D0CD10C007B
:100CC000000000000000000000000000000000CA5A
:100CD00006A10DEB0CB70C000090317E0301000063
:100CE000000000000001000000D106D10C050DB786
:100CF0000C000061398A037F000000010000000140
:100D0000000000DA06EB0C1F0DB70C0000383500B0
:100D100000000000000000000000000000E20605E6
:100D20000D390DB70C00006139870364000000190C
:100D300000000019000000E9061F0D530DB70C005C
:100D4000000C38000000000000000000000000005F
:100D500000F006390D6D0DB70C00008A3700000059
:100D60000000000000000000000000F706530D879F
:100D70000DB70C00009031010101000000000000DF
:100D80000001000000FE066D0DA10DB70C000090E3
:100D9000317903010000000000000001000000059F
:100DA00007870DD10CB70C00009031000101000045
:100DB0000000000000010000002507BF0D7D3DC3BD
:100DC0000D083DC70D903C00009B36CF0D3832D347
:100DD0000D272A00009B36D707B70CBB0DCB0D2083
:100DE00020556E6B6E002020556E6B6E005654536E
:100DF0003230300056545331303000565453203680
:100E00003000564E4520333500564E4520313500D2
:100E1000564E45202036007253742E204F4B0053FF
:100E200075726520590053757265206E0020202070
:100E3000204F6B00202020204F6B00202020204FCF
:100E40006B00436F6465202000536176654F6B0033
:100E500053617665204500536176652053005361E8
:100E600076652043004572722E202031002020201C
:100E7000204F6B002020206F666600202020204F2E
:100E80006B002020206F666600202020204F6B0022
:100E9000762E6465762E4F6B004574616C4F6B0047
:100EA0004572722E202031004E756C6C4F6B0045E0
:100EB00072722E20203100202020204F6B00202035
:100EC00020204F6B00202020204F6B00202020206E
:100ED0004F6B00202020204F6B00202020204F6BE4
:100EE00000202020204F6B002020206F464600204D
:100EF0002020206F6E002020202020200020536C16
:100F00006565700000407A10F35A00A0724E18090F
:100F10000010A5D4E80000E87648170000E40B5460
:100F2000020000CA9A3B000000E1F505000080962F
:100F30009800000040420F000000A0860100000061
:100F4000102700000000E80300000000640000001B
:100F500000000A00000000000100000000002C76E4
:100F6000D888DC674F0823DFC1DFAE59E1B1B796FF
:100F7000E5E3E453C63AE651997696E8E6C284265C
:100F8000EB898C9B62ED407C6FFCEFBC9C9F40F238
:100F9000BAA56FA5F490055A2AF75C936B6CF967B4
:100FA0006DC11BFCE0E40D47FEF520E6B500D0ED79
:100FB000902E0300943577050080841E08000020E1
:100FC0004E0A000000C80C333333330F986E12837F
:100FD0001141EF8D2114893BE65516CFFEE6DB1853
:100FE000D1844B381BF77C1D901DA4BBE424203218
:100FF00084725E228100C9F124ECA1E53D27EC0D4D
:10100000F10D11241FBECFEFD0E1DEBFCDBF13E045
:10101000A0E0B1E0E0E6FAED00E00BBF02C007900F
:101020000D92A637B107D9F717E0A6E7B3E001C0E4
:101030001D92A835B107E1F71FE000E0C0E0D0E164
:1010400040E006C022974109FE014BBF0E9447665F
:10105000CE3FD1074007B1F70E94B10B0C941E6D33
:101060000C94000081309105A9F48EE090E00E947C
:101070006D6680938203909383038EE194E00E94D7
:10108000F34483E794E00E94D01485E794E00E9443
:1010900074190895009741F485E794E00E94B0190F
:1010A0008EE194E00E94A445089510927603109278
:1010B0007A0310927803E0918203F091830380E237
:1010C0008083E0918203F0918303818320918603E2
:1010D0008091880390E0820F911D0E94186A0E94FF
:1010E000136A809388031092B7031092B80310928A
:1010F000B9031092BA031092BB031092BC03109272
:10110000BD031092BE031092BF031092C003109251
:10111000C1031092C2031092C3031092C403109231
:10112000C5031092C6031092C7031092C803109211
:10113000C9031092CA03809187038093840310929D
:10114000DB031092DC031092DD031092DE03109299
:10115000F7031092F6031092F8031092F90310921D
:10116000FA031092FB031092FC038FEF8093FD03B0
:101170001092940610927D0380EA90E00E94886AA3
:1011800091E0882309F490E090937E031092EF039E
:1011900081E08093F0031092F1031092F20385E056
:1011A0008093040188E0809305018093060180E02C
:1011B00090E0DC0180931F0490932004A09321040D
:1011C000B093220410921E0410925B0410925C04EF
:1011D00010925D0410925E0410925704109258040D
:1011E0001092590410925A041092760610927506C5
:1011F0001092790610927A0610927B0610927C0665
:1012000010927F061092800610928106109282063C
:1012100008958F929F92AF92BF92CF92DF92EF92FA
:10122000FF920F931F938EE10E941D4D8823B9F00A
:101230004091A3035091A4036091A5037091A6036C
:1012400085E794E00E94D11985E794E00E943F1A57
:1012500085E794E00E945C1A0E94725703C060E028
:1012600070E0CB0120910401283009F411C129302C
:1012700009F44BC1253009F08CC12091FC0321FFFA
:1012800005C01092FC0321E020937D032091FC0314
:1012900022FF0CC01092FC032091F203213019F4BC
:1012A0001092F20303C021E02093F1032091FC038C
:1012B00023FFAAC03091F2033130A1F41092FC0355
:1012C0004091780320919406442329F430937803C5
:1012D00020642F7D04C0109278032F7B206220931E
:1012E0009406B5C0FFB6F8942091DF039090E00318
:1012F000B091E103A091E203F091E303E091E403F4
:101300005091E503D090E6034091890630918A061A
:1013100080908B06A0908C06B0908D06C0908E06B3
:1013200000918F06E0909006122F141B41E02117C8
:1013300008F040E0292D231B31E0921608F030E040
:10134000922E941A41E0291508F040E0342B4B2FDF
:10135000481921E0B41708F020E0B42FB31B31E0A6
:101360004B1708F030E0232B4A2F4A1931E0A4171D
:1013700008F030E0A42FA21B21E04A1708F020E07B
:10138000322B4F2F4B1921E0F41708F020E0F42FF7
:10139000F31B31E04F1708F030E0232B4E2F4C1990
:1013A00031E0E41708F030E0E42FE21B21E04E17B3
:1013B00008F020E0322B452F401B21E0541708F0A5
:1013C00020E0542F531B01E0451708F000E0202BCC
:1013D0003D2D3E19321BFFBE1230C9F59920B9F5DB
:1013E000BB23A9F5AA2399F5FF2389F5EE2379F507
:1013F000552369F5332359F52091F303222339F559
:1014000021E02093810323C02FB7F8941091DF03CC
:10141000B091E003A091E103F091E203E091E303D6
:101420005091E4034091E5033091E603109389065F
:10143000B0938A06A0938B06F0938C06E0938D06FA
:1014400050938E0640938F06309390062FBF2091C5
:10145000FC0324FF05C01092FC0328E02093040144
:10146000209100014091820350918303222369F06F
:1014700020918C032F5F20938C030E94191680917A
:101480008C03815080938C0384C00E94191681C004
:10149000809182039091830369ED75E00E942C6A2C
:1014A0008091FC0384FF05C01092FC0385E08093CB
:1014B00004018091FC0382FF08C01092FC0381E0CC
:1014C0008093EF0385E0809304018091FC0381FF0A
:1014D00012C01092FC031092B7031092B80310923E
:1014E000B9031092BA03809194068F7E809394067C
:1014F00085E0809304018091FC0383FF4AC0109231
:10150000FC0389E08093040144C08091FC0381FFC7
:1015100005C01092FC0385E0809304019FB6F89407
:101520002091DF033091E0034091E1035091E20309
:101530006091E3037091E4038091E5039091E603E9
:10154000E3E0AE2EBB24CC24DD24EE24FF2400E017
:1015500010E00E94465D232B242B252B262B272BC6
:10156000282B292B4091820350918303222359F089
:101570006091B7037091B8038091B9039091BA0359
:101580000E94191605C0CA0162ED75E00E942C6A1E
:101590009FBE8091F6039091F703009709F4C8C0AD
:1015A0008091F60383FF08C08091820390918303AA
:1015B0006AEC75E00E942C6A8091F60385FF0DC0ED
:1015C0008091940680688093940680918203909124
:1015D000830362EC75E00E942C6A8091F60380FF21
:1015E0001DC0809182039091830369EB75E00E9496
:1015F0002C6AE0918306F091840680918203909199
:101600008303099580E197E224E131E0F901319704
:10161000F1F70197D9F781E0809381038091F60378
:1016200081FF39C0809182039091830360EB75E064
:101630000E942C6AE0918306F091840680918203D7
:1016400090918303099580E197E224E131E0F9016B
:101650003197F1F70197D9F70E94BC298091820355
:101660009091830368EA75E00E942C6AE0918306FA
:10167000F09184068091820390918303099580E321
:1016800095E724E131E0F9013197F1F70197D9F7B6
:1016900081E0809381038091F60382FF1DC08091D9
:1016A0008203909183036FE975E00E942C6AE091B8
:1016B0008306F091840680918203909183030995BB
:1016C00080E197E224E131E0F9013197F1F70197E8
:1016D000D9F781E0809381038091F60386FF2DC0C6
:1016E0008091940680688093940680918203909103
:1016F000830367E975E00E942C6AE0918306F0910C
:1017000084068091820390918303099580E395E795
:1017100024E131E0F9013197F1F70197D9F7809190
:1017200094068F778093940681E08093810305C0AF
:10173000809194068F7780939406E0918306F091D0
:101740008406809182039091830309951F910F91E4
:10175000FF90EF90DF90CF90BF90AF909F908F90D1
:101760000895AF92BF92CF92DF92EF92FF920F93C4
:101770001F93CF93DF930E944A1B8EE188BB86EEB6
:1017800087BB80E29EE424E131E0F9013197F1F773
:101790000197D9F70E94D1148091F303882319F49B
:1017A00082ED9EE102C086E091E2909384068093F0
:1017B0008306809182039091830360E975E00E9423
:1017C0002C6AE0918306F0918406809182039091C7
:1017D0008303099580E197E224E131E0F901319733
:1017E000F1F70197D9F70E945D12882369F089E12A
:1017F00091E00E94886A8093F503EDEDFDE025916C
:101800003491C9010E94C2410E942D2E882329F4DF
:101810008091F60381608093F6030E94F32E882363
:1018200029F48091F60382608093F6030E94B12F21
:10183000882329F48091F60384608093F6038091D5
:10184000F6039091F703009709F47AC08091F603AC
:1018500080FF1AC0809182039091830367E875E04E
:101860000E942C6AE0918306F091840680918203A5
:1018700090918303099580E197E224E131E0F90139
:101880003197F1F70197D9F78091F60381FF36C0C0
:1018900080918203909183036EE775E00E942C6A29
:1018A000E0918306F09184068091820390918303F6
:1018B000099580E197E224E131E0F9013197F1F7F0
:1018C0000197D9F70E94BC298091820390918303EC
:1018D00066E775E00E942C6AE0918306F091840629
:1018E0008091820390918303099580E29EE424E134
:1018F00031E0F9013197F1F70197D9F78091F603BB
:1019000082FF1AC080918203909183036DE675E097
:101910000E942C6AE0918306F091840680918203F4
:1019200090918303099580E197E224E131E0F90188
:101930003197F1F70197D9F70E9494420E94AC4287
:101940000E94E221C4E1D1E0BB24BA94E9EDFDE0BC
:1019500005911491EBEDFDE0E590F490E7EDFDE0ED
:10196000C590D490F4E1AF2E0E94D1140E94550886
:1019700083E794E060E071E00E944B1481E00E94F4
:10198000DD456091870370E080E090E00E9468642C
:101990000E94A5450E94F141882331F08EE194E038
:1019A00040E050E0BA0106C08EE194E040E050E033
:1019B00068EC72E40E94BC4378948091F30388231E
:1019C00009F062C00E94FF1388EE93E0FE01319798
:1019D000F1F70197D9F720915704309158044091BD
:1019E000590450915A048091270490912804A091A1
:1019F0002904B0912A04281739074A075B0750F5D4
:101A000080910701853149F40E94B142A0920701FB
:101A1000809181038823C1F1DCC08FB7F894909145
:101A2000DF039091E0039091E1039091E2039091A4
:101A3000E3039091E4039091E5039091E6038FBF57
:101A40000E94FF138091FC0381FFC3C08D7F8093B0
:101A5000FC031AC0809182039091830366E675E0CF
:101A60000E942C6AE0918306F091840680918203A3
:101A70009091830309950E941F1588E893E1FE0168
:101A80003197F1F70197D9F70E94EE1A0E941F15BE
:101A90000E94381B0E941F150E94661B8091F30351
:101AA000813081F580919406816080939406DF985F
:101AB000D79A28C08091F60383FF1AC080918203D1
:101AC000909183036EE575E00E942C6AE091830695
:101AD000F0918406809182039091830309950E947E
:101AE0001F1588E893E1FE013197F1F70197D9F7C7
:101AF0000E946912882309F06CC0809181038823B9
:101B000009F067C00E940A158823A1F20E94711291
:101B1000882329F1809182039091830367E575E022
:101B20000E942C6AE0918306F091840680918203E2
:101B30009091830309958091FC0383FF04C0C60143
:101B40000E94A13F06C0877F8093FC03C7010E94CB
:101B5000C24183E794E060E071E00E944B14809101
:101B6000FC03982F94719431B9F48B7E8093FC031D
:101B7000809182039091830360E575E00E942C6A56
:101B8000E0918306F0918406809182039091830313
:101B90000995C8010E94A13F8FB7F8949091DF0387
:101BA0009091E0039091E1039091E2039091E3031F
:101BB0009091E4039091E5039091E6038FBF10921A
:101BC000FC03B092FD030E940909809181038823E0
:101BD000D1F30E949442C8CE81E090E00E94320886
:101BE000089580E090E00E9432080895813019F451
:101BF000379A339A0895882311F4339837980895C3
:101C0000853011F4359A0895863009F43598089591
:101C1000EF92FF920F931F93CF93DF93C0918800B1
:101C2000D091890020E030EC48EA50E00E948165C4
:101C30007B018C016091730470917404882777FD97
:101C40008095982F28EE33E040E050E00E948165B7
:101C50009B01AC01C801B7010E94D365C20FD31F1D
:101C600080918600909187008C179D0730F48091B9
:101C7000860090918700C81BD90BD0938500C09334
:101C8000840080917D00886080937D00DF91CF91FA
:101C90001F910F91FF90EF900895369A089586E076
:101CA0000E94000E8DE08093910680EC87B987B189
:101CB00087B986B18F6086B963E070E080E090E01C
:101CC0000E94080E089586E00E94000E8EE0809328
:101CD000910680EC87B987B1836087B986B18F6040
:101CE00086B963E070E080E090E00E94080E0895FD
:101CF00086E00E94000E8FE08093910680EC87B909
:101D0000399A86B18F6086B963E070E080E090E038
:101D10000E94080E089586E00E94000E80E18093E4
:101D2000910680EC87B9389A86B18F6086B963E0F6
:101D300070E080E090E00E94080E089520917A0300
:101D40008091570490915804A0915904B0915A047D
:101D5000222309F4B2C02091270430912804409135
:101D6000290450912A0482179307A407B50708F0A5
:101D700010C120912B0430912C0440912D045091DE
:101D80002E0482179307A407B50708F004C1209119
:101D90002F04309130044091310450913204821765
:101DA0009307A407B50770F42091330430913404ED
:101DB0004091350450913604281739074A075B07CC
:101DC00008F4EBC020913704309138044091390475
:101DD00050913A0482179307A407B50770F4209135
:101DE0003B0430913C0440913D0450913E0428173F
:101DF00039074A075B0708F4D2C020913F043091AD
:101E00004004409141045091420482179307A40773
:101E1000B50770F420914304309144044091450487
:101E200050914604281739074A075B0708F4B9C0E0
:101E300020914704309148044091490450914A044C
:101E400082179307A407B50770F420914B043091D3
:101E50004C0440914D0450914E04281739074A070D
:101E60005B0708F4A0C020914F04309150044091CA
:101E700051045091520482179307A407B50770F4D8
:101E800020915304309154044091550450915604CC
:101E9000281739074A075B0708F487C020915304C5
:101EA0003091540440915504509156042817390735
:101EB0004A075B0708F46BC07AC020912B0430916D
:101EC0002C0440912D0450912E0482179307A407EF
:101ED000B50708F06EC020912F0430913004409176
:101EE00031045091320482179307A407B50770F4A8
:101EF00020913B0430913C0440913D0450913E04BC
:101F0000281739074A075B0708F455C020913F049A
:101F1000309140044091410450914204821793074C
:101F2000A407B50768F4209143043091440440911C
:101F3000450450914604281739074A075B07E8F122
:101F400020914704309148044091490450914A043B
:101F500082179307A407B50768F4209153043091C2
:101F600054044091550450915604281739074A07E4
:101F70005B0728F12091530430915404409155049B
:101F800050915604281739074A075B07D0F480E0C0
:101F9000089581E0089582E0089583E0089584E043
:101FA000089585E0089586E0089587E0089588E023
:101FB00008958BE008958CE008958DE008958EE0FB
:101FC00008958FE008951F920F920FB60F920BB6EF
:101FD0000F921124AF92BF92CF92DF92EF92FF92B5
:101FE0000F931F932F933F934F935F936F937F9321
:101FF0008F939F93AF93BF93EF93FF9364B175B1AA
:1020000080E090E02091CB033091CC034091CD0350
:102010005091CE030E9481657B018C017AE0169578
:102020000795F794E7947A95D1F7809191068E30D1
:10203000A9F18F3020F48D3009F024C207C08F3011
:1020400009F481C1803109F01DC2BDC1E092DB03FA
:10205000F092DC030093DD031093DE030E94F14154
:10206000882341F081E080937A0380919406816017
:102070008D7F0FC010927A0380911E04882329F46B
:102080008EE194E061E00E94FB43809194068E7F94
:102090008260809394060E94630EF4C1809177035E
:1020A000882399F02091CF033091D0034091D10340
:1020B0005091D203C801B7010E94816524E630E047
:1020C00040E050E00E94D3654AC080917A0320919D
:1020D000CF033091D0034091D1035091D203882394
:1020E00041F58091DB039091DC03A091DD03B09179
:1020F000DE0360E9A62EB12CC12CD12CA81AB90A96
:10210000CA0ADB0AC801B7010E94816524E630E0F3
:1021100040E050E00E94D365A20EB31EC41ED51E3F
:10212000A0925704B0925804C0925904D0925A0415
:102130001EC0A090DB03B090DC03C090DD03D09004
:10214000DE03C801B7010E94816524E630E040E06B
:1021500050E00E94D3652A193B094C095D09209380
:102160005704309358044093590450935A040E94E2
:102170009E0E0091F6030F730093F60310919506DF
:102180001C7F10939506893098F4863008F06FC054
:10219000833051F1843030F48130D1F0823009F055
:1021A000BEC016C0843079F1853009F0B8C042C095
:1021B0008D3009F474C08E3020F48B3008F4AFC039
:1021C00022C08E3009F488C08F3009F0A8C0A1C0A9
:1021D00080E090E0DC0180931F0490932004A093A2
:1021E0002104B09322049BC060911F0470912004CD
:1021F000809121049091220420E030E040E05FE3F0
:102200000E9466630EC060911F047091200480914B
:1022100021049091220420E030E040E05FE30E943E
:10222000676360931F04709320048093210490934C
:10223000220475C060911F047091200480912104D4
:102240009091220420E030E040E85FE30E94676361
:1022500060931F04709320048093210490932204C0
:1022600000680093F60311601093950658C06091C2
:102270001F0470912004809121049091220420E099
:1022800030E040E85FE30E94676360931F0470934F
:1022900020048093210490932204116034C0609143
:1022A0001F0470912004809121049091220420E069
:1022B00030E040E85FE30E94676360931F0470931F
:1022C00020048093210490932204126010939506B9
:1022D00000680093F60323C060911F0470912004EE
:1022E000809121049091220420E030E040E85FE3F7
:1022F0000E94676360931F047093200480932104FD
:102300009093220412601093950600640093F603E4
:1023100003C012601093950681E080938103409181
:102320001F045091200460912104709122048EE1D9
:1023300094E00E94BC438091F303882309F0A2C07B
:102340000E94780E9FC08091F0038130A1F56091CA
:10235000870370E080E090E023E430E040E050E06C
:102360000E9481652AE030E040E050E00E94D365A1
:1023700080918403E216F3060407150710F08150DC
:1023800001C08F5F809384038091840387FF02C024
:10239000109284038091840385361CF084E6809338
:1023A000840360918403772767FD7095872F972FAB
:1023B0000E946A6403C060E070E0CB010E94A54502
:1023C0000E948B0E5FC0E0925B04F0925C0400936D
:1023D0005D0410935E0480915F0490916004A0916D
:1023E0006104B09162048E159F05A007B107B0F497
:1023F00060911F0470912004809121049091220427
:1024000020E030E040E85FE30E94666360931F04D1
:102410007093200480932104909322048EE194E031
:102420000E94114480917A03882301F16091230472
:1024300070912404809125049091260420E030E0DE
:1024400048EC52E40E94CB63882381F480E090E062
:10245000DC0180931F0490932004A0932104B09387
:1024600022048EE194E060E00E94FB4340911F044F
:102470005091200460912104709122048EE194E037
:102480000E94BC43FF91EF91BF91AF919F918F91BB
:102490007F916F915F914F913F912F911F910F917C
:1024A000FF90EF90DF90CF90BF90AF900F900BBE5A
:1024B0000F900FBE0F901F90189581E00B9980E050
:1024C000089581E00C9980E0089581E00D9980E005
:1024D000089581E00E9980E0089581E0B39980E04D
:1024E000089581E0B49980E008950E945D12909172
:1024F000FD03882369F090FF05C08091FC03816093
:102500008093FC038091FD038E7F8093FD0308C0C0
:1025100091609093FD038091FC038E7F8093FC0378
:102520000E9461129091FD03882369F091FF05C01C
:102530008091FC0382608093FC038091FD038D7F7A
:102540008093FD0308C092609093FD038091FC038B
:102550008D7F8093FC030E9465129091FD03882378
:1025600069F092FF05C08091FC0384608093FC03B6
:102570008091FD038B7F8093FD0308C0946090934E
:10258000FD038091FC038B7F8093FC030E94691202
:102590009091FD03882369F093FF05C08091FC03AF
:1025A00088608093FC038091FD03877F8093FD0307
:1025B00008C098609093FD038091FC03877F80930F
:1025C000FC030E946D129091FD03882369F094FF33
:1025D00005C08091FC0380618093FC038091FD0322
:1025E0008F7E8093FD0308C090619093FD038091DE
:1025F000FC038F7E8093FC030E9471129091FD0377
:10260000882369F095FF05C08091FC038062809368
:10261000FC038091FD038F7D8093FD0308959062FC
:102620009093FD038091FC038F7D8093FC030895BC
:102630001F920F920FB60F920BB60F9211242F9389
:102640003F934F935F936F937F938F939F93AF933A
:10265000BF93EF93FF9310928900109288008091AE
:1026600092068F5F809392060E9475128091950664
:10267000882331F00E94D53080917D00826003C0B4
:1026800080917D008D7F80937D00809192068A30BD
:1026900009F04DC0109292064091DF033091E003A3
:1026A0002091E1039091E2038091E303F091E40330
:1026B000E091E503A091E603642F6F5F51E064179A
:1026C00008F050E0530F41E0531708F040E0420F8C
:1026D00031E0421708F030E0390F21E0391708F0F7
:1026E00020E0280F91E0281708F090E09F0F81E08C
:1026F0009F1708F080E08E0F71E08E1708F070E0F1
:102700007A0F6093DF035093E0034093E10330932B
:10271000E2032093E3039093E4038093E503709333
:10272000E6038091F303882311F40E944F0EFF917A
:10273000EF91BF91AF919F918F917F916F915F9139
:102740004F913F912F910F900BBE0F900FBE0F90A6
:102750001F9018951F920F920FB60F920BB60F9203
:1027600011242F933F934F935F936F937F938F9396
:102770009F93AF93BF93EF93FF930E944D0EEDE7AE
:10278000F0E08081877F8083FF91EF91BF91AF91CF
:102790009F918F917F916F915F914F913F912F9179
:1027A0000F900BBE0F900FBE0F901F9018951F92A9
:1027B0000F920FB60F920BB60F9211242F933F93E7
:1027C0004F935F936F937F938F939F93AF93BF9339
:1027D000EF93FF930E940E31FF91EF91BF91AF9164
:1027E0009F918F917F916F915F914F913F912F9129
:1027F0000F900BBE0F900FBE0F901F901895BF92B9
:10280000CF92DF92EF92FF920F931F938FB7F894BE
:10281000B091DF03A091E003F091E103E091E203C6
:102820007091E3036091E4035091E5034091E60366
:102830008FBF20E03CE6C9010197F1F78FB7F8940C
:10284000B090DF03C090E003D090E103E090E2039A
:10285000F090E3030091E4031091E5039091E60307
:10286000BB1681F4CA1671F4DF1661F4EE1651F44A
:10287000F71641F4061731F4151721F4941711F4E3
:102880008FBFD9CF8FBF1F910F91FF90EF90DF9037
:10289000CF90BF900895EF92FF92CF93DF93FC010A
:1028A00060837183E62EE7017E01F72EE701970131
:1028B000220F331FC70143E0880F991F4A95E1F7A4
:1028C000280F391F442737FD4095542F60E070ECE6
:1028D00088EA90E00E94F565309387002093860097
:1028E000409186005091870022E330E0429FC00172
:1028F000439F900D529F900D112464E670E00E945A
:10290000AC65709383006093820080917D0080614C
:1029100080937D00C034D105D9F0C134D1053CF499
:10292000C130D10569F0C830D105F9F40DC091E08E
:10293000C030D90789F084E0C030D807B1F410C0A6
:1029400080918A0081600FC080918A0082600BC0F4
:1029500080918A00836007C080918A00846003C0F0
:1029600080918A00856080938A00DF91CF91FF90EB
:10297000EF90089587B78E7F87BF109289001092DD
:1029800088001092870010928600109285001092A5
:102990008400109283001092820010928A000895A1
:1029A00008958FEB8BBB8FEF8ABB8EE188BB86EEE1
:1029B00087BB15BA88E884BB8CEC9AE00197F1F7E5
:1029C0008CE982BB80EF81BB8BE783B912B8109290
:1029D000620010926100109265001092640019BEAE
:1029E00081E00E94F60D60E875E280E090E00E94D0
:1029F00011476091D7037091D8038091D9039091CA
:102A0000DA030E94444781E00E94014781E00E946E
:102A10003747089582E00E94FC4A8CED95E024E15E
:102A200031E0F9013197F1F70197D9F782E00E947F
:102A30008F4B9091F60381E093FD80E008950E9412
:102A40000A158823C1F4C2989298939880E197E27E
:102A500024E131E0F9013197F1F70197D9F70E94AC
:102A6000D11480E29EE424E131E0F9013197F1F7DD
:102A70000197D9F7089588E99AE324E131E0F90153
:102A80003197F1F70197D9F70895FB0197FF06C039
:102A90002DE22083909581959F4F02C020E22083F4
:102AA00027E280319207D4F420E2218333E0883E8C
:102AB0009307B4F4228384369105A4F423838A30E7
:102AC00091051CF4248325E001C024E0BF01620FBE
:102AD000711D4AE050E00E94336A089521E0F6CF6C
:102AE00022E0F4CF23E0F2CFFA0197FF0AC02DE2F3
:102AF000208390958095709561957F4F8F4F9F4F64
:102B00000AC0603A26E8720721E0820720E09207B7
:102B100064F520E22083603137E2730730E08307F9
:102B200030E0930724F520E22183683E33E0730709
:102B300030E0830730E09307E4F4228364367105C4
:102B400081059105C4F423836A30710581059105DF
:102B50001CF4248325E001C024E0AF01420F511D85
:102B60002AE030E00E94546A089520E0F6CF21E088
:102B7000F4CF22E0F2CF23E0F0CFCF92DF92EF92BA
:102B8000FF920F931F93CF93DF936B017C01EA01B8
:102B900020E030E0A9010E94CB6387FF07C08DE2EF
:102BA0008883F7FAF094F7F8F0940CC0C701B601E7
:102BB00020E030E04AE754E40E94CB6387FF04C082
:102BC00080E2888301E001C000E0C701B60120E097
:102BD00030E048EC52E40E94CB6387FF06C0FE0160
:102BE000E00FF11D80E280830F5FC701B60120E096
:102BF00030E040E251E40E94CB6387FF06C0FE0153
:102C0000E00FF11D80E280830F5FCE01800F911DE8
:102C10008C01C701B60141E022E00E944B661F8291
:102C2000DF91CF911F910F91FF90EF90DF90CF90A8
:102C30000895CF93DF93EA0120918C03233009F4A8
:102C4000D4C0243030F4213059F0223009F04CC285
:102C500061C0243009F43EC1253009F045C2B8C135
:102C600097FF0AC02DE22883909580957095619515
:102C70007F4F8F4F9F4F0BC0603826E9720728E9BE
:102C8000820720E092070CF033C220E228836034F0
:102C900032E473073FE0830730E093070CF02AC269
:102CA00020E22983603A36E8730731E0830730E099
:102CB00093070CF021C22A83603137E2730730E0BA
:102CC000830730E093070CF019C22B83683E23E0A2
:102CD000720720E0820720E0920724F420E32C838F
:102CE00025E001C024E0AE01420F511D2AE030E092
:102CF0000E94546A80918C03E6E0F0E0E81BF10941
:102D0000EC0FFD1F80819EE2908390918C03E7E0A1
:102D1000F0E0E5C197FF0AC02DE2288390958095E9
:102D2000709561957F4F8F4F9F4F0BC0603836E98C
:102D3000730738E9830730E093070CF0E1C120E224
:102D40002883603422E472072FE0820720E0920794
:102D50000CF0D8C120E22983603A36E8730731E0ED
:102D6000830730E093070CF0CFC12A83603127E25C
:102D7000720720E0820720E092070CF0C7C120E331
:102D80002B83683E33E0730730E0830730E093071E
:102D90000CF0BEC12C8364367105810591051CF4CD
:102DA0002D8326E001C025E0AE01420F511D2AE02F
:102DB00030E00E94546A80918C03E6E0F0E0E81B6A
:102DC000F109EC0FFD1F90818EE2808380918C03CE
:102DD000E7E0F0E0E81BF109EC0FFD1F8081908334
:102DE00090918C03E8E0F0E07AC197FF0AC02DE2F1
:102DF000288390958095709561957F4F8F4F9F4F59
:102E00000BC0603826E9720728E9820720E09207A4
:102E10000CF080C120E22883603432E473073FE085
:102E2000830730E093070CF077C120E22983603AF2
:102E300026E8720721E0820720E092070CF06EC1BD
:102E400020E32A83603137E2730730E0830730E004
:102E500093070CF065C12B83683E33E0730730E0C5
:102E6000830730E093070CF05DC12C836436710555
:102E7000810591051CF42D8326E001C025E0AE01FB
:102E8000420F511D2AE030E00E94546A80918C0369
:102E9000E6E0F0E0E81BF109EC0FFD1F80819EE207
:102EA000908390918C03E7E0F0E0E91BF109EC0FCF
:102EB000FD1F9081808380918C03E8E0F0E0E81BA7
:102EC000F109EC0FFD1F8081908390918C03E9E064
:102ED000F0E005C197FF0AC02DE228839095809508
:102EE000709561957F4F8F4F9F4F0BC0603826E9DB
:102EF000720728E9820720E092070CF015C120E252
:102F00002883603432E473073FE0830730E093079F
:102F10000CF00CC120E32983603A36E8730731E0F6
:102F2000830730E093070CF003C12A83603137E256
:102F3000730730E0830730E093070CF0FBC02B836E
:102F4000683E33E0730730E0830730E093070CF00E
:102F5000F3C02C8364367105810591051CF42D8323
:102F600026E001C025E0AE01420F511D2AE030E00D
:102F70000E94546A80918C03E6E0F0E0E81BF109BE
:102F8000EC0FFD1F90818EE2808380918C03E7E03F
:102F9000F0E0E81BF109EC0FFD1F80819083909118
:102FA0008C03E8E0F0E0E91BF109EC0FFD1F9081D4
:102FB000808380918C03E9E0F0E0E81BF109EC0FDD
:102FC000FD1F8081908390918C03EAE0F0E087C040
:102FD00097FF0AC02DE228839095809570956195A2
:102FE0007F4F8F4F9F4F0BC0603826E9720728E94B
:102FF000820720E092070CF0A1C020E32883603410
:1030000032E473073FE0830730E093070CF098C089
:1030100020E32983603A36E8730731E0830730E024
:1030200093070CF08FC02A83603137E2730730E0DA
:10303000830730E093070CF087C02B83683E33E0B2
:10304000730730E0830730E093070CF07FC02C83D8
:1030500064367105810591051CF42D8326E001C0BD
:1030600025E0AE01420F511D2AE030E00E94546A73
:1030700080918C03E6E0F0E0E81BF109EC0FFD1F06
:1030800080819EE2908390918C03E7E0F0E0E91B61
:10309000F109EC0FFD1F9081808380918C03E8E0A3
:1030A000F0E0E81BF109EC0FFD1F80819083909107
:1030B0008C03E9E0F0E0E91BF109EC0FFD1F9081C2
:1030C000808380918C03EAE0F0E0E81BF109EC0FCB
:1030D000FD1F8081908390918C03EBE0F0E0E91B71
:1030E000F109EC0FFD1F80831F82DF91CF910895BE
:1030F00020E0F9CD21E0F7CD22E0F5CD23E0F3CDBE
:1031000020E052CE21E050CE22E04ECE23E04CCE45
:1031100024E04ACE20E0B3CE21E0B1CE22E0AFCE13
:1031200023E0ADCE24E0ABCE20E01DCF21E01BCFCD
:1031300022E019CF23E017CF24E015CF20E091CF74
:1031400021E08FCF22E08DCF23E08BCF24E089CF09
:1031500060912304709124048091250490912604A9
:103160000E943764DC01CB0160918203709183037C
:103170000E944515E0918203F091830382E68083EB
:10318000E0918203F091830381E48183E0918203E3
:10319000F091830384E78283609123047091240477
:1031A000809125049091260420E030E0A9010E943E
:1031B000CB63E0918203F0918303882309F046C03A
:1031C0008EE28383809108018230C1F0833049F11F
:1031D000813009F04FC0E0918203F091830380E2D7
:1031E0008483E0918203F09183038583E0918203DD
:1031F000F09183038FE5868382E025C0E09182030E
:10320000F091830380E28483E0918203F091830351
:103210008583E0918203F09183038DE3868383E0CD
:1032200012C0E0918203F091830380E28483E091F5
:103230008203F09183038583E0918203F0918303FD
:103240008EE7868381E080930801089585818683D7
:10325000E0918203F091830384818583E09182036E
:10326000F091830383818483E0918203F09183034F
:103270008EE283830895FC0180819181A281B381D4
:10328000FB012081318142815381821B930BA40B6E
:10329000B50B181619061A061B063CF00097A10577
:1032A000B10531F02FEF3FEF05C021E030E002C063
:1032B00020E030E0C9010895CF93DF93262F372F08
:1032C000F901282F392FE90120E009C0819191915E
:1032D000A191B19189939993A993B9932F5F2417E1
:1032E000A8F3DF91CF910895FC01EF5FFD4F1082AD
:1032F000FC01E050FE4F1082FC01EC5FFD4F10829C
:10330000118212821382865F9D4FFC01108211820E
:103310001282138208950F931F93FC01E050FE4F19
:103320001082FC01EF5FFD4F1082FC01E65FFD4F54
:103330001082118212821382FC01EC5FFD4F108219
:10334000118212821382FC01E85FFD4F718360835A
:103350008E5F9D4FFC01118300831F910F91089593
:10336000FC01E050FE4F1082FC01EF5FFD4F108228
:10337000FC01E65FFD4F1082118212821382FC0174
:10338000EC5FFD4F1082118212821382FC01E85F14
:10339000FD4F118210828E5F9D4FFC0111821082C1
:1033A0000895FC01E65FFD4F408351836283738380
:1033B000FC01EF5FFD4F2081222311F5109293064F
:1033C000FC01E85FFD4F20813181E0E00BC0EE0F92
:1033D000FF1FEE0FFF1FE80FF91F40835183628329
:1033E0007383EA2FAE2FAF5FF0E0E217F30778F3B5
:1033F000109293068F5F9D4F21E0FC01208308957A
:10340000FC01E050FE4F2081DC01A85FBD4F213060
:10341000D9F420919306E22FF0E0EE0FFF1FEE0F9C
:10342000FF1FE80FF91F40835183628373832F5F6F
:103430002093930630E08D919C91119728173907BE
:10344000E9F4109293060895109293062D913C9101
:103450001197E0E00BC0EE0FFF1FEE0FFF1FE80F0C
:10346000F91F4083518362837383EA2FAE2FAF5FCE
:10347000F0E0E217F30778F31092930608950F93A4
:103480001F93CF93DF93BC018C0100501F4FEC01C1
:10349000C85FDD4FC80148810E945C19688179814D
:1034A000C80144E050E02BE339E10E94F067DF916E
:1034B000CF911F910F9108951F93CF93DF93EC014C
:1034C000FC01EE5FFD4F8081918196958795182FC5
:1034D000FE01E85FFD4FA081B181A81BB90B60E040
:1034E00070E0CB0111C0E05CFF4FEE0FFF1FEE0F4D
:1034F000FF1FEC0FFD1F2081318142815381620F3C
:10350000731F841F951F1F5FE12FF0E0EA17FB0771
:1035100050F3CC5FDD4F31979F01442737FD409535
:10352000542F0E94F565288339834A835B83DF919A
:10353000CF911F9108954091A3035091A4036091EE
:10354000A5037091A60380917F0690918006A091BB
:103550008106B0918206841B950BA60BB70B815098
:103560009E4FAF4FBF4F8F3F23E0920720E0A2074F
:1035700020E0B20720F481E08093750602C010922B
:10358000750685E794E00E94D11985E794E00E94D2
:103590003F1A85E794E00E945C1A60917906709169
:1035A0007A0680917B0690917C062AE030E040E02C
:1035B00050E00E94F565E0918203F0918303CA0117
:1035C000B901AF010E947415E0918306F091840661
:1035D0008091820390918303099508951F938091B0
:1035E00082039091830369EE75E00E942C6A8091BA
:1035F000860364E60E94A065609182037091830354
:103600006B5F7F4F90E04AE050E00E94336A809108
:1036100086031AE0612F0E94A0650E94A065892F91
:1036200020918203309183032A5F3F4F90E0B901DC
:103630004AE050E00E94336A80918603612F0E9425
:10364000A065892F6091820370918303695F7F4F2A
:1036500090E04AE050E00E94336AE0918306F091E6
:103660008406809182039091830309951F910895A8
:10367000809182039091830360EE75E00E942C6A32
:10368000E0918306F09184068091820390918303F8
:1036900009950895809161008B7F809361008091EE
:1036A000620084608093620088EE93E024E131E060
:1036B000F9013197F1F70197D9F7029B04C081E036
:1036C0008093F30308951092F30308958091820389
:1036D0009091830362E476E00E942C6A80919406C4
:1036E000846880939406E0918306F091840680912B
:1036F000820390918303099588EB9BE024E131E0FC
:10370000F9013197F1F70197D9F7809182039091F0
:1037100083036BE376E00E942C6A809194068377A2
:10372000886080939406E0918306F09184068091EE
:10373000820390918303099588EB9BE024E131E0BB
:10374000F9013197F1F70197D9F7809182039091B0
:1037500083036FE276E00E942C6A80919406877F53
:10376000806180939406E0918306F09184068091B5
:10377000820390918303099588EB9BE024E131E07B
:10378000F9013197F1F70197D9F780918203909170
:10379000830368E276E00E942C6A809194068F7E13
:1037A000806280939406E0918306F0918406809174
:1037B000820390918303099588EB9BE024E131E03B
:1037C000F9013197F1F70197D9F780918203909130
:1037D00083036CE176E00E942C6A809194068F7DD1
:1037E000806480939406E0918306F0918406809132
:1037F000820390918303099588EB9BE024E131E0FB
:10380000F9013197F1F70197D9F7809182039091EF
:10381000830365E176E00E942C6A809194068F7B99
:10382000806280939406E0918306F09184068091F3
:10383000820390918303099588EB9BE024E131E0BA
:10384000F9013197F1F70197D9F7809182039091AF
:10385000830369E076E00E942C6A809194068F7D54
:10386000806180939406E0918306F09184068091B4
:10387000820390918303099588EB9BE024E131E07A
:10388000F9013197F1F70197D9F78091820390916F
:10389000830362E076E00E942C6A809194068F7E1A
:1038A000886080939406E0918306F091840680916D
:1038B000820390918303099588EB9BE024E131E03A
:1038C000F9013197F1F70197D9F78091820390912F
:1038D000830366EF75E00E942C6A80919406877FCF
:1038E000846080939406E0918306F0918406809131
:1038F000820390918303099588EB9BE024E131E0FA
:10390000F9013197F1F70197D9F7809182039091EE
:1039100083036FEE75E00E942C6A809194068B7F82
:1039200080939406E0918306F0918406809182034F
:1039300090918303099588EB9BE024E131E0F90144
:103940003197F1F70197D9F70895DF92EF92FF923F
:103950000F931F93CF93DF93EC01E881E052E7359B
:1039600060F4F0E0EE0FFF1FEE0FFF1FE75FFE4F6A
:1039700080819181A281B38104C080E090E0A0EEBB
:10398000BBE029812E3219F0A06111E001C012E0E4
:10399000FE01E10FF11D208130E020523040293539
:1039A000310508F04DC02A5B3F4FF901EE0FFF1FB4
:1039B0000590F491E02D0994AE60B06F43C0A4600F
:1039C00041C0B06C3FC0A260B0693CC0A260B068AA
:1039D00039C0A660B06836C0B06934C0B06532C0C6
:1039E000B06F30C0A460B06E2DC0A260B06C2AC0B1
:1039F000B06628C0A660B06E25C0B06E23C0A860B7
:103A0000B06F20C0A460B0641DC0B0611BC0AC60CA
:103A1000B06718C0A260B06215C0A860B06212C0E2
:103A2000AC60B0640FC0A860B0680CC0B0680AC0D9
:103A3000AC60B06307C0A86005C0AA60B06F02C0E8
:103A4000AE60B06BD12ED394FE01ED0DF11D20813F
:103A50002A3329F4D39420E030E0A90104C021E006
:103A600030E040E050E0ED2DFF27E7FDF095EC0F52
:103A7000FD1FE081EE3211F0A16001C0D394ED2D65
:103A8000FF27E7FDF095EC0FFD1FE080FF24F70115
:103A9000B097E935F105F0F5E156FF4FEE0FFF1F46
:103AA0000590F491E02D09942E6135C0286134C051
:103AB0002C6103C02C6030C0206190622DC0206159
:103AC0000EC0226129C02E6121C02860906424C0EC
:103AD0002A61F3CF2C61FACF2C611EC02C61906655
:103AE0001BC02861EACF2A6017C02E6115C0226072
:103AF00013C02E600BC02460E0CF246009C0286092
:103B000005C0206105C0206107C02660906C04C01C
:103B1000906802C02661906ED394ED2DFF27E7FDDB
:103B2000F095EC0FFD1FE081EE3211F0906101C0C5
:103B3000D394ED2DFF27E7FDF095EC0FFD1FE080FE
:103B4000FF24F701B097EA35F10508F040C0E850CE
:103B5000FF4FEE0FFF1F0590F491E02D09943F6099
:103B600037C03C6036C0396003C0366032C0386050
:103B700092602FC038600CC039602BC03F6023C0FA
:103B80003D60F6CF3E60946024C03E6022C03E603F
:103B900096601FC03C60ECCF35601BC03F6019C011
:103BA000346013C03E6014C0316013C037600BC076
:103BB0003260DECF326009C0346005C0386005C0B5
:103BC000386007C033609C6004C0986002C03B60EE
:103BD0009E60D394ED2DFF27E7FDF095EC0FFD1FC0
:103BE000E081EA3311F0306101C0D394ED2DFF275D
:103BF000E7FDF095EC0FFD1FE081EE3211F09160D2
:103C000001C0D394ED2DFF27E7FDF095EC0FFD1FCC
:103C1000E080FF24F701B097E935F10508F048C0CE
:103C2000EE5AFE4FEE0FFF1F0590F491E02D099420
:103C3000306247603FC046603EC03062446003C0AF
:103C4000436039C04460806236C044600EC0426048
:103C5000806431C03062476027C030624660F3CF75
:103C60004760F6CF476027C04760806624C0466043
:103C7000EACF306242601FC0306247601CC03062D1
:103C80004760806A18C0306216C0306243600CC062
:103C90004160D9CF41600AC0426006C0446006C09E
:103CA000446009C030624160806C05C0806803C018
:103CB00030624560806ED394ED2DFF27E7FDF095CF
:103CC000EC0FFD1FE081EE3211F0806101C0D39452
:103CD000ED2DFF27E7FDF095EC0FFD1FE080FF24A1
:103CE000F701B097EF35F10508F041C0E555FE4FFB
:103CF000EE0FFF1F0590F491E02D0994486338C042
:103D0000486301C040638B6034C04061FCCF4860B1
:103D100008C040632EC0486023C04062846029C050
:103D20004862836026C04063856023C0406318C03A
:103D300086601FC0406387601CC04062F2CF406253
:103D400014C048630DC0486014C048630CC0406193
:103D500082600FC0406109C0406205C0896009C02F
:103D6000816007C048618C6004C0886002C04861FF
:103D70008F602095309540955095FB0124833583C5
:103D80004683578380959095A095B09580839183C5
:103D9000A283B383DF91CF911F910F91FF90EF909A
:103DA000DF9008951F93DF93CF93CDB7DEB72897A9
:103DB0000FB6F894DEBF0FBECDBF19821A821B82E8
:103DC0001C821D821E821F821886BE016F5F7F4F7C
:103DD0000E94A51C8D819E81AF81B885A0648D83D2
:103DE0009E83AF83B8878091F003813011F410E88F
:103DF00001C010E08091940686FF05C081E00E941A
:103E0000B730106404C080E00E94B7301F7B8091FF
:103E1000940685FF05C081E00E94AB30106204C0AB
:103E200080E00E94AB301F7D8091940684FF05C026
:103E300081E00E949F30106104C080E00E949F30AA
:103E40001F7E8091940683FF05C081E00E9493301D
:103E5000186004C080E00E949330177F8091940620
:103E600082FF05C081E00E948730146004C080E0BA
:103E70000E9487301B7F8091940681FF05C081E0FE
:103E80000E947B30126004C080E00E947B301D7F66
:103E90008091940680FF05C081E00E946F3012601F
:103EA00004C080E00E946F301D7F8091940687FFE0
:103EB00002C081E001C080E00E94C33087E090E052
:103EC000212F30E0A901082E02C0559547950A948C
:103ED000E2F740FD02C0969801C0969A959A95988F
:103EE00001974FEF8F3F940769F729E130E08D810B
:103EF0009E81AF81B885022E04C0B695A79597958F
:103F000087950A94D2F780FD02C0969801C0969AD0
:103F1000959A95980000215030408FEF2F3F380739
:103F200031F72FE130E089819A81AB81BC81022E8B
:103F300004C0B695A795979587950A94D2F780FD0A
:103F400002C0969801C0969A959A959800002150C3
:103F500030404FEF2F3F340731F787E090E029E002
:103F600030E0A901082E02C0559547950A94E2F762
:103F700040FD02C0969801C0969A959A95980000C7
:103F800001974FEF8F3F940761F7979A949A00003B
:103F90009798949828960FB6F894DEBF0FBECDBFC1
:103FA000CF91DF911F9108952F923F924F925F9290
:103FB0006F927F928F929F92AF92BF92CF92DF9239
:103FC000EF92FF920F931F93CF93DF93E82EE701B9
:103FD0007E01F92EE70140E0F2E0BF2EE0E4CE2EB4
:103FE00055E7D52E15EB35EDE32E20EDF22E01EE43
:103FF00053E790EAA92E87EA982EB0EF8B2EA0EB1C
:104000007A2EF1EC6F2EE0E85E2E31EB432E23ED9D
:10401000322E93EA292E37EFB8C090E0FC01B0971A
:10402000EA35F10508F0A9C0E65FFD4F842F992716
:1040300087FD9095EE0FFF1F0590F491E02D0994F8
:10404000860F971FFC0110829FC0860F971F27EDD8
:1040500003C0860F971F24E1FC01208395C0860FC3
:10406000971F26EEF9CF860F971F26E7F5CF860F0D
:10407000971F25E3F1CF860F971F23EFEDCF860F14
:10408000971F26E1E9CF860F971FFC0130837CC084
:10409000860F971F27E7E0CF860F971F20E2DCCF20
:1040A000860F971F27EBD8CF860F971F21EFD4CF0E
:1040B000860F971F23ECD0CF860F971F24EFCCCF0E
:1040C000860F971F23EEC8CF860F971FFC01208213
:1040D0005BC0860F971FFC01308256C0860F971F6A
:1040E000FC01408251C0860F971FFC0150824CC0DA
:1040F000860F971FFC01608247C0860F971FFC0147
:10410000708242C0860F971FFC0180823DC0860FDF
:10411000971FFC01908238C0860F971FFC01A08278
:1041200033C0860F971FFC0150832EC0860F971F48
:10413000FC01008329C0860F971FFC01F08224C078
:10414000860F971FFC01E0821FC0860F971FFC019E
:1041500010831AC0860F971FFC01D08215C0860FEE
:10416000971FFC01C08210C0FC013197E60FF71FBA
:10417000808188608083415007C0E42FFF27E7FDDE
:10418000F095E60FF71FB0824F5F8991882309F001
:1041900044CFDF91CF911F910F91FF90EF90DF906F
:1041A000CF90BF90AF909F908F907F906F905F90D7
:1041B0004F903F902F90089547E09798FC01208101
:1041C00030E0042E02C0359527950A94E2F720FFCF
:1041D00002C0969801C0969A979A415070F79798A6
:1041E000089547E09598FC01208130E0042E02C03C
:1041F000359527950A94E2F720FF02C0969801C0F2
:10420000969A959A415070F795980895AF92BF92FB
:10421000CF92DF92EF92FF920F931F93DF93CF9392
:10422000CDB7DEB727970FB6F894DEBF0FBECDBF70
:104230001982BE016E5F7F4F0E94D41F8091940649
:1042400086FF06C081E00E94B7308981806205C088
:1042500080E00E94B73089818F7D898380919406A8
:1042600085FF06C081E00E94AB308981806105C076
:1042700080E00E94AB3089818F7E89838091940693
:1042800084FF06C081E00E949F308981886005C05C
:1042900080E00E949F308981877F89838091940686
:1042A00083FF06C081E00E9493308981846005C04D
:1042B00080E00E94933089818B7F8983809194066E
:1042C00082FF06C081E00E9487308981826005C03C
:1042D00080E00E94873089818D7F89838091940658
:1042E00081FF07C081E00E947B30898181608983E2
:1042F00003C080E00E947B308091940680FF06C05E
:1043000081E00E946F308981816005C080E00E9459
:104310006F3089818E7F89838091940687FF02C0E8
:1043200081E001C080E00E94C3306091870370E0AB
:1043300080E090E00E9468645B016C0160E070E0E6
:10434000CB010E94A545949A00E010E0B2E0EB2E6C
:10435000F12CEC0EFD1EC701800F911F0E94F12071
:104360000F5F1F4F06301105B1F7CE0101960E9475
:10437000F120949800E010E0A2E0EA2EF12CEC0E7F
:10438000FD1EC701800F911F0E94DC200F5F1F4F91
:1043900006301105B1F76A2D7B2D8C2D9D2D0E94C5
:1043A000A54527960FB6F894DEBF0FBECDBFCF91BF
:1043B000DF911F910F91FF90EF90DF90CF90BF9012
:1043C000AF900895EF92FF920F931F9381EA90E0D0
:1043D0000E94886A80938E03E82FF0E0EE0FFF1FA3
:1043E000EE0FFF1FE051FB4F259135914591549100
:1043F0002093D7033093D8034093D9035093DA0323
:1044000086ED90E00E94886A8093850384E190E0C5
:104410000E94886A8093860382EA90E00E94886AFC
:10442000809387038FE990E00E94886A80938A03D3
:1044300088ED90E00E94886A80938C0385ED90E07F
:104440000E94886A80938D0385E190E00E94886ACB
:1044500080938F0387ED90E00E94886A8093900399
:1044600085EA90E00E94966A909394038093930368
:1044700083EA90E00E94966A909396038093950356
:1044800082E290E00E94906A6093CB037093CC0329
:104490008093CD039093CE0386E290E00E94906AD1
:1044A0002BE232E040E050E00E94816528EE33E0EC
:1044B00040E050E00E94D3652093CF033093D003B7
:1044C0004093D1035093D20386E190E00E94906A1A
:1044D0006093D3037093D4038093D5039093D60352
:1044E0008EE190E00E94906A609397037093980326
:1044F0008093990390939A038AE190E00E94906AD6
:1045000060939B0370939C0380939D0390939E0301
:1045100087EA90E00E94886A91E0882309F490E09D
:104520009093010188EA90E00E94886A91E08823D4
:1045300009F490E09093790389E191E00E94886A00
:104540008093F50389EA90E00E94886A91E08823CD
:1045500009F490E09093000182EE90E00E94906A4E
:10456000E0900201F090030100E010E0A801970143
:104570000E9481656093A7037093A8038093A903A9
:104580009093AA038EE191E00E94906AA80197019E
:104590000E9481656093AB037093AC038093AD037D
:1045A0009093AE038AE191E00E94906AA80197017E
:1045B0000E9481656093AF037093B0038093B10351
:1045C0009093B20389ED90E00E94906AA801970150
:1045D0000E9481656093B3037093B4038093B50325
:1045E0009093B60381EE90E00E94886A80938903DD
:1045F000E82FF0E0EE0FFF1FEE0FFF1FE45EFA4F13
:104600002591359145915491822F932FA42FB52F49
:104610008093E7039093E803A093E903B093EA0340
:1046200082E291E00E94966A9093920380939103B4
:1046300086EE90E00E94886A80938B03E82FF0E07A
:10464000EE0FFF1FEE0FFF1FE05CFA4F2591359133
:1046500045915491822F932FA42FB52F8093EB0374
:104660009093EC03A093ED03B093EE038AE290E005
:104670000E94906AA80197010E9481656093FE03E1
:104680007093FF03809300049093010482E390E011
:104690000E94906AA80197010E94816560930604B8
:1046A0007093070480930804909309048AE390E0D0
:1046B0000E94906AA80197010E94816560930E0490
:1046C00070930F04809310049093110482E490E09F
:1046D0000E94906AA80197010E9481656093160468
:1046E0007093170480931804909319048EE290E05D
:1046F0000E94906A60930204709303048093040400
:104700009093050486E390E00E94906A60930A0407
:1047100070930B0480930C0490930D048EE390E04F
:104720000E94906A6093120470931304809314049F
:104730009093150486E490E00E94906A60931A04B6
:1047400070931B0480931C0490931D048DED90E0E6
:104750000E94966A90937E0680937D068FED90E08E
:104760000E94966A90937806809377061F910F9126
:10477000FF90EF9008951F93FC014FEF5FEFA1E2D0
:10478000B0E113C0319120E04227532718E0CA015D
:10479000880F991F57FF04C0AC014A275B2701C04F
:1047A000AC011150A1F7615070406115710551F7CE
:1047B000CA011F910895AF92BF92CF92DF92EF92FC
:1047C000FF920F931F93CF93DF93EC017B010FEFC9
:1047D0001FEF51E2C52E50E1D52E18C0CE010E9428
:1047E000886AB82EAA240A251B25219628E0C8012C
:1047F000880F991F17FF04C08C010C251D2501C0CF
:104800008C012150A1F70894E108F108E114F104AA
:1048100029F7C801DF91CF911F910F91FF90EF9081
:10482000DF90CF90BF90AF900895AF92BF92CF929C
:10483000DF92EF92FF920F931F9386E190E00E9428
:10484000906A9B01AC018091D3039091D403A09115
:10485000D503B091D603281739074A075B0709F03B
:1048600015C18AE190E00E94906A9B01AC018091A1
:104870009B0390919C03A0919D03B0919E032817E8
:1048800039074A075B0709F001C18EE190E00E94F9
:10489000906A9B01AC018091970390919803A0913D
:1048A0009903B0919A03281739074A075B0709F063
:1048B000EDC082E290E00E94906A9B01AC01809181
:1048C000CB039091CC03A091CD03B091CE032817D8
:1048D00039074A075B0709F0D9C086E290E00E94D9
:1048E000906A2BE232E040E050E00E94816528EEC1
:1048F00033E040E050E00E94D3658091CF03909177
:10490000D003A091D103B091D203281739074A07E9
:104910005B0709F0BBC085E190E00E94886A909136
:104920008F03891709F0B2C08AE290E00E94906A72
:104930005B016C016091FE037091FF0380910004A4
:1049400090910104E4E6EE2EF12C012D112DA80129
:1049500097010E94F565A216B306C406D50609F0B4
:1049600095C08EE290E00E94906A9B01AC0180911C
:10497000020490910304A0910404B0910504281747
:1049800039074A075B0709F081C082E390E00E9483
:10499000906A5B016C01609106047091070480913C
:1049A000080490910904A80197010E94F565A216D8
:1049B000B306C406D50609F069C086E390E00E94FC
:1049C000906A9B01AC0180910A0490910B04A09124
:1049D0000C04B0910D04281739074A075B0709F04A
:1049E00055C08AE390E00E94906A5B016C0160917F
:1049F0000E0470910F048091100490911104A8018D
:104A000097010E94F565A216B306C406D506F1F516
:104A10008EE390E00E94906A9B01AC0180911204A9
:104A200090911304A0911404B0911504281739072C
:104A30004A075B0759F582E490E00E94906A5B01A7
:104A40006C01609116047091170480911804909184
:104A50001904A80197010E94F565A216B306C406C1
:104A6000D506A1F486E490E00E94906AE1E02091EE
:104A70001A0430911B0440911C0450911D046217CC
:104A800073078407950719F4E0E001C0E1E08E2F79
:104A90001F910F91FF90EF90DF90CF90BF90AF905C
:104AA000089580EA90E00E94886A21E030E088233F
:104AB00011F420E030E080917E0390E02817390760
:104AC00009F064C08FE990E00E94886A90918A039F
:104AD000891709F05BC081EA90E00E94886A909192
:104AE0008E03891709F052C082EA90E00E94886A1A
:104AF00090918703891709F049C083EA90E00E94EA
:104B0000966A209195033091960382179307F1F5E9
:104B100085EA90E00E94966A209193033091940375
:104B20008217930799F587EA90E00E94886A21E04E
:104B300030E0882311F420E030E08091010190E022
:104B40002817390719F588EA90E00E94886A21E061
:104B500030E0882311F420E030E08091790390E088
:104B600028173907A9F489EA90E00E94886A21E0B1
:104B700030E0882311F420E030E04091000150E063
:104B800081E02417350729F480E0089581E0089535
:104B900081E00895AF92BF92CF92DF92EF92FF92A1
:104BA0000F931F9385ED90E00E94886A90918D038A
:104BB000891709F079C086ED90E00E94886A90918B
:104BC0008503891709F070C087ED90E00E94886A1C
:104BD00090919003891709F067C088ED90E00E94DA
:104BE000886A90918C03891709F05EC089ED90E086
:104BF0000E94906A5B016C01E0900201F090030159
:104C000000E010E06091B3037091B4038091B503AC
:104C10009091B603A80197010E94F565A216B3060C
:104C2000C406D50609F040C08DED90E00E94966A5A
:104C300020917D0630917E0682179307A9F58FEDAE
:104C400090E00E94966A209177063091780682174C
:104C5000930751F581EE90E00E94886A9091890354
:104C6000891711F582EE90E00E94906A5B016C0159
:104C70006091A7037091A8038091A9039091AA0362
:104C8000A80197010E94F565A216B306C406D506D1
:104C900059F486EE90E00E94886A91E020918B039F
:104CA000821719F490E001C091E0892F1F910F91B4
:104CB000FF90EF90DF90CF90BF90AF900895EF926C
:104CC000FF920F931F934091D3035091D4036091AF
:104CD000D5037091D60386E190E00E94A96A4091C5
:104CE000D3035091D4036091D5037091D6038BE424
:104CF00090E00E94A96A40919B0350919C036091AF
:104D00009D0370919E038AE190E00E94A96A409100
:104D10009B0350919C0360919D0370919E038FE4CF
:104D200090E00E94A96A4091970350919803609186
:104D3000990370919A038EE190E00E94A96A4091D4
:104D40009703509198036091990370919A0383E5BA
:104D500090E00E94A96A4091CB035091CC036091EE
:104D6000CD037091CE0382E290E00E94A96A409147
:104D7000CB035091CC036091CD037091CE0387E5B6
:104D800090E00E94A96A6091CF037091D003809156
:104D9000D1039091D20328EE33E040E050E00E942E
:104DA0008165ABE2EA2EA2E0FA2E012D112DA801B9
:104DB00097010E94D36586E290E0BA01A9010E94A2
:104DC000A96A6091CF037091D0038091D103909133
:104DD000D20328EE33E040E050E00E948165A80154
:104DE00097010E94D3658BE590E0BA01A9010E946A
:104DF000A96A85E190E060918F030E949C6A8AE431
:104E000090E060918F030E949C6A6091FE03709114
:104E1000FF038091000490910104F4E6EF2EF12C41
:104E2000012D112DA80197010E94F5658AE290E0FD
:104E3000BA01A9010E94A96A6091FE037091FF0363
:104E40008091000490910104A80197010E94F565EA
:104E50008FE590E0BA01A9010E94A96A409102047D
:104E60005091030460910404709105048EE290E077
:104E70000E94A96A409102045091030460910404C5
:104E80007091050483E690E00E94A96A609106048F
:104E9000709107048091080490910904A80197017A
:104EA0000E94F56582E390E0BA01A9010E94A96A17
:104EB00060910604709107048091080490910904A0
:104EC000A80197010E94F56587E690E0BA01A90163
:104ED0000E94A96A40910A0450910B0460910C044D
:104EE00070910D0486E390E00E94A96A40910A0443
:104EF00050910B0460910C0470910D048BE690E0CE
:104F00000E94A96A60910E0470910F0480911004B0
:104F100090911104A80197010E94F5658AE390E041
:104F2000BA01A9010E94A96A60910E0470910F0450
:104F30008091100490911104A80197010E94F565D9
:104F40008FE690E0BA01A9010E94A96A409112047B
:104F50005091130460911404709115048EE390E055
:104F60000E94A96A409112045091130460911404A4
:104F70007091150483E790E00E94A96A609116047D
:104F8000709117048091180490911904A801970159
:104F90000E94F56582E490E0BA01A9010E94A96A25
:104FA000609116047091170480911804909119046F
:104FB000A80197010E94F56587E790E0BA01A90171
:104FC0000E94A96A40911A0450911B0460911C042C
:104FD00070911D0486E490E00E94A96A40911A0431
:104FE00050911B0460911C0470911D048BE790E0AC
:104FF0000E94A96A85E190E065E370E00E94DB23EE
:10500000BC0188E090E00E94B16A85E190E065E330
:1050100070E00E94DB23BC018EE090E00E94B16A48
:1050200080919B0390919C032091CB033091CC0302
:10503000820F931F2091970330919803820F931F43
:1050400020918603820F911D0E94186A0E94136AA4
:10505000682F809386038823C9F384E190E00E943F
:105060009C6A1F910F91FF90EF900895CF93DF936B
:1050700080EA90E060917E030E949C6A8BEA90E057
:1050800060917E030E949C6ACFE9D0E0CE016091DE
:105090008A030E949C6A8AEA90E060918A030E94D7
:1050A0009C6A81EA90E060918E030E949C6A8CEA7F
:1050B00090E060918E030E949C6A82EA90E0609189
:1050C00087030E949C6A8DEA90E0609187030E94AA
:1050D0009C6A609195037091960383EA90E00E9428
:1050E000B16A60919503709196038EEA90E00E94F8
:1050F000B16A609193037091940385EA90E00E94F5
:10510000B16A609193037091940380EB90E00E94E8
:10511000B16A87EA90E0609101010E949C6A82EB8B
:1051200090E0609101010E949C6A88EA90E06091A1
:1051300079030E949C6A83EB90E0609179030E945E
:105140009C6A89EA90E0609100010E949C6A84EB6D
:1051500090E0609100010E949C6ACE016BE070E0DB
:105160000E94DB23BC018AE090E00E94B16ACE017C
:105170006BE070E00E94DB23BC0180E190E00E94C4
:10518000B16ADF91CF91089585ED90E060918D0334
:105190000E949C6A87EE90E060918D030E949C6A59
:1051A00086ED90E0609185030E949C6A88EE90E015
:1051B000609185030E949C6A87ED90E06091900366
:1051C0000E949C6A89EE90E0609190030E949C6A24
:1051D00088ED90E060918C030E949C6A8AEE90E0DA
:1051E00060918C030E949C6A20910201309103011E
:1051F00040E050E06091B3037091B4038091B50337
:105200009091B6030E94F56589ED90E0BA01A9017D
:105210000E94A96A209102013091030140E050E010
:105220006091B3037091B4038091B5039091B6037C
:105230000E94F5658BEE90E0BA01A9010E94A96A6F
:1052400060917D0670917E068DED90E00E94B16ABE
:1052500060917D0670917E068FEE90E00E94B16AAB
:1052600060917706709178068FED90E00E94B16AA8
:10527000609177067091780681EF90E00E94B16AA4
:1052800081EE90E0609189030E949C6A83EF90E038
:10529000609189030E949C6A209102013091030170
:1052A00040E050E06091A7037091A8038091A903AA
:1052B0009091AA030E94F56582EE90E0BA01A901DF
:1052C0000E94A96A209102013091030140E050E060
:1052D0006091A7037091A8038091A9039091AA03FC
:1052E0000E94F56584EF90E0BA01A9010E94A96AC5
:1052F00086EE90E060918B030E949C6A88EF90E0BC
:1053000060918B030E949C6A85ED90E062E170E001
:105310000E94DB23BC018CE090E00E94B16A85ED25
:1053200090E062E170E00E94DB23BC0182E190E04A
:105330000E94B16A80919B0390919C032091CB03C2
:105340003091CC03820F931F2091970330919803E3
:10535000820F931F20918603820F911D0E94186A6D
:105360000E94136A682F809386038823C9F384E11F
:1053700090E00E949C6A08958FE990E061E00E94AD
:105380009C6A8AEA90E061E00E949C6A80EA90E070
:1053900061E00E949C6A8BEA90E061E00E949C6A56
:1053A00081EA90E062E00E949C6A8CEA90E062E010
:1053B0000E949C6A82EA90E06BE40E949C6A8DEAFB
:1053C00090E06BE40E949C6A83EA90E060E070E009
:1053D0000E94B16A8EEA90E060E070E00E94B16ADB
:1053E00085EA90E060E070E00E94B16A80EB90E0B6
:1053F00060E070E00E94B16A87EA90E061E00E949C
:105400009C6A82EB90E061E00E949C6A88EA90E0EE
:1054100061E00E949C6A83EB90E061E00E949C6ADC
:1054200089EA90E060E00E949C6A84EB90E060E092
:105430000E949C6A8AE090E06AE171E80E94B16A89
:1054400080E190E06AE171E80E94B16A0895DF921C
:10545000EF92FF920F931F9384E190E060E00E942F
:105460009C6A82ED94E0A0E0B0E080939B0390936F
:105470009C03A0939D03B0939E0389E390E3A0E077
:10548000B0E08093970390939803A0939903B0930F
:105490009A0380E09AE0A0E0B0E08093CB03909381
:1054A000CC03A093CD03B093CE038BE292E0A0E0B7
:1054B000B0E08093CF039093D003A093D103B09337
:1054C000D203D090F5038D2D833009F42BC18430A5
:1054D00030F4813079F0823009F085C3B0C08D2D71
:1054E000853009F444C2853008F4B8C1863009F02B
:1054F0007AC3D4C283E080938F0380E69AEEA0E063
:10550000B0E08093D3039093D403A093D503B093DA
:10551000D603E0900201F090030100E010E0C80122
:10552000B70128E93AE340E050E00E9481656093CA
:10553000FE037093FF03809300049093010485E0C1
:1055400090E0A0E0B0E08093020490930304A09365
:105550000404B0930504C801B70120E335E740E037
:1055600050E00E9481656093060470930704809365
:105570000804909309048AE090E0A0E0B0E08093F2
:105580000A0490930B04A0930C04B0930D04C8017B
:10559000B70120E63AEE40E050E00E94816560935A
:1055A0000E0470930F04809310049093110484E10F
:1055B00090E0A0E0B0E08093120490931304A093D5
:1055C0001404B0931504C801B70120EA36E841E09D
:1055D00050E00E94816560931604709317048093D5
:1055E00018049093190482E390E0A0E0B0E0809367
:1055F0001A0490931B04A0931C04B0931D04D09232
:105600008C03D801C701E2E0880F991FAA1FBB1FB6
:10561000EA95D1F78E0D9F1DA01FB11F8093B30394
:105620009093B403A093B503B093B6038093A703FC
:105630009093A803A093A903B093AA03D4C273E0E4
:10564000D72ED0928F0388E99AE3A0E0B0E0809350
:10565000D3039093D403A093D503B093D603E090E3
:105660000201F090030100E010E0C801B70128EB4F
:105670003BE040E050E00E9481656093FE03709340
:10568000FF03809300049093010481E090E0A0E088
:10569000B0E08093020490930304A0930404B093B9
:1056A0000504C801B70120E737E140E050E00E945F
:1056B00081656093060470930704809308049093B7
:1056C000090482E090E0A0E0B0E080930A049093A7
:1056D0000B04A0930C04B0930D04C801B70128E992
:1056E0003AE340E050E00E94816560930E047093BD
:1056F0000F04809310049093110485E090E0A0E0E3
:10570000B0E08093120490931304A0931404B09318
:105710001504C801B70120E337E545E050E00E94D9
:10572000816568C0D0928F0380E29EE4A0E0B0E083
:105730008093D3039093D403A093D503B093D6035F
:10574000E0900201F090030100E010E0C801B70111
:1057500020E737E140E050E00E9481656093FE035E
:105760007093FF03809300049093010481E090E024
:10577000A0E0B0E08093020490930304A09304049B
:10578000B0930504C801B70128E93AE340E050E0CE
:105790000E94816560930604709307048093080457
:1057A0009093090482E090E0A0E0B0E080930A04C6
:1057B00090930B04A0930C04B0930D04C801B7019F
:1057C00028EB38E840E050E00E94816560930E04C9
:1057D00070930F04809310049093110425E030E03F
:1057E00040E050E0209312043093130440931404DB
:1057F0005093150460931604709317048093180453
:10580000909319048AE090E0A0E0B0E080931A043D
:1058100090931B04A0931C04B0931D04D0928C039E
:10582000C801B7012AE030E040E050E00E94816505
:105830006093B3037093B4038093B5039093B6035E
:10584000D801C70162E0880F991FAA1FBB1F6A9584
:10585000D1F78E0D9F1DA01FB11FBDC152E0D52EE7
:10586000D0928F0380E797E1A0E0B0E08093D3036C
:105870009093D403A093D503B093D603E090020194
:10588000F090030100E010E0C801B70128EB3BE015
:1058900040E050E00E9481656093FE037093FF0337
:1058A00080930004909301048AE090E0A0E0B0E0CF
:1058B0008093020490930304A0930404B09305041E
:1058C000C801B70120E737E140E050E00E94816560
:1058D000609306047093070480930804909309046E
:1058E00082E090E0A0E0B0E080930A0490930B0483
:1058F000A0930C04B0930D04C801B70120E137E276
:1059000040E050E00E94816560930E0470930F04A4
:10591000809310049093110482E390E0A0E0B0E043
:105920008093120490931304A0931404B09315046D
:10593000C801B70128EB38E840E050E00E948165DB
:1059400060931604709317048093180490931904BD
:1059500084E690E0A0E0B0E080931A0490931B04EA
:10596000A0931C04B0931D04D0928C0388C083E0E4
:1059700080938F0388E893E1A0E0B0E08093D303A5
:105980009093D403A093D503B093D603E090020183
:10599000F090030100E010E0C801B70128EB3BE004
:1059A00040E050E00E9481656093FE037093FF0326
:1059B000809300049093010481E090E0A0E0B0E0C7
:1059C0008093020490930304A0930404B09305040D
:1059D000C801B70120E737E140E050E00E9481654F
:1059E000609306047093070480930804909309045D
:1059F00082E090E0A0E0B0E080930A0490930B0472
:105A0000A0930C04B0930D04C801B70120E137E264
:105A100040E050E00E94816560930E0470930F0493
:105A2000809310049093110485E090E0A0E0B0E032
:105A30008093120490931304A0931404B09315045C
:105A4000C801B70128EB38E840E050E00E948165CA
:105A500060931604709317048093180490931904AC
:105A60008AE090E0A0E0B0E080931A0490931B04D9
:105A7000A0931C04B0931D0482E080938C03D80192
:105A8000C701880F991FAA1FBB1F8093B303909370
:105A9000B403A093B503B093B60390C032E0D32E05
:105AA000D0928F0380E596E4A0E0B0E08093D3032A
:105AB0009093D403A093D503B093D603E090020152
:105AC000F090030100E010E0C801B70128E93AE3D3
:105AD00040E050E00E9481656093FE037093FF03F5
